{
  "_format": "hh-sol-artifact-1",
  "contractName": "MyNFT",
  "sourceName": "contracts/MyNFT.sol",
  "abi": [
    {
      "inputs": [],
      "stateMutability": "nonpayable",
      "type": "constructor"
    },
    {
      "anonymous": false,
      "inputs": [
        {
          "indexed": true,
          "internalType": "address",
          "name": "owner",
          "type": "address"
        },
        {
          "indexed": true,
          "internalType": "address",
          "name": "approved",
          "type": "address"
        },
        {
          "indexed": true,
          "internalType": "uint256",
          "name": "tokenId",
          "type": "uint256"
        }
      ],
      "name": "Approval",
      "type": "event"
    },
    {
      "anonymous": false,
      "inputs": [
        {
          "indexed": true,
          "internalType": "address",
          "name": "owner",
          "type": "address"
        },
        {
          "indexed": true,
          "internalType": "address",
          "name": "operator",
          "type": "address"
        },
        {
          "indexed": false,
          "internalType": "bool",
          "name": "approved",
          "type": "bool"
        }
      ],
      "name": "ApprovalForAll",
      "type": "event"
    },
    {
      "anonymous": false,
      "inputs": [
        {
          "indexed": true,
          "internalType": "address",
          "name": "previousOwner",
          "type": "address"
        },
        {
          "indexed": true,
          "internalType": "address",
          "name": "newOwner",
          "type": "address"
        }
      ],
      "name": "OwnershipTransferred",
      "type": "event"
    },
    {
      "anonymous": false,
      "inputs": [
        {
          "indexed": true,
          "internalType": "address",
          "name": "from",
          "type": "address"
        },
        {
          "indexed": true,
          "internalType": "address",
          "name": "to",
          "type": "address"
        },
        {
          "indexed": true,
          "internalType": "uint256",
          "name": "tokenId",
          "type": "uint256"
        }
      ],
      "name": "Transfer",
      "type": "event"
    },
    {
      "inputs": [
        {
          "internalType": "address",
          "name": "to",
          "type": "address"
        },
        {
          "internalType": "uint256",
          "name": "tokenId",
          "type": "uint256"
        }
      ],
      "name": "approve",
      "outputs": [],
      "stateMutability": "nonpayable",
      "type": "function"
    },
    {
      "inputs": [
        {
          "internalType": "address",
          "name": "owner",
          "type": "address"
        }
      ],
      "name": "balanceOf",
      "outputs": [
        {
          "internalType": "uint256",
          "name": "",
          "type": "uint256"
        }
      ],
      "stateMutability": "view",
      "type": "function"
    },
    {
      "inputs": [
        {
          "internalType": "uint256",
          "name": "tokenId",
          "type": "uint256"
        }
      ],
      "name": "burn",
      "outputs": [],
      "stateMutability": "nonpayable",
      "type": "function"
    },
    {
      "inputs": [
        {
          "internalType": "string",
          "name": "uri",
          "type": "string"
        }
      ],
      "name": "createNFT",
      "outputs": [
        {
          "internalType": "uint256",
          "name": "",
          "type": "uint256"
        }
      ],
      "stateMutability": "nonpayable",
      "type": "function"
    },
    {
      "inputs": [
        {
          "internalType": "uint256",
          "name": "tokenId",
          "type": "uint256"
        }
      ],
      "name": "getApproved",
      "outputs": [
        {
          "internalType": "address",
          "name": "",
          "type": "address"
        }
      ],
      "stateMutability": "view",
      "type": "function"
    },
    {
      "inputs": [
        {
          "internalType": "address",
          "name": "owner",
          "type": "address"
        },
        {
          "internalType": "address",
          "name": "operator",
          "type": "address"
        }
      ],
      "name": "isApprovedForAll",
      "outputs": [
        {
          "internalType": "bool",
          "name": "",
          "type": "bool"
        }
      ],
      "stateMutability": "view",
      "type": "function"
    },
    {
      "inputs": [],
      "name": "name",
      "outputs": [
        {
          "internalType": "string",
          "name": "",
          "type": "string"
        }
      ],
      "stateMutability": "view",
      "type": "function"
    },
    {
      "inputs": [],
      "name": "owner",
      "outputs": [
        {
          "internalType": "address",
          "name": "",
          "type": "address"
        }
      ],
      "stateMutability": "view",
      "type": "function"
    },
    {
      "inputs": [
        {
          "internalType": "uint256",
          "name": "tokenId",
          "type": "uint256"
        }
      ],
      "name": "ownerOf",
      "outputs": [
        {
          "internalType": "address",
          "name": "",
          "type": "address"
        }
      ],
      "stateMutability": "view",
      "type": "function"
    },
    {
      "inputs": [],
      "name": "renounceOwnership",
      "outputs": [],
      "stateMutability": "nonpayable",
      "type": "function"
    },
    {
      "inputs": [
        {
          "internalType": "address",
          "name": "from",
          "type": "address"
        },
        {
          "internalType": "address",
          "name": "to",
          "type": "address"
        },
        {
          "internalType": "uint256",
          "name": "tokenId",
          "type": "uint256"
        }
      ],
      "name": "safeTransferFrom",
      "outputs": [],
      "stateMutability": "nonpayable",
      "type": "function"
    },
    {
      "inputs": [
        {
          "internalType": "address",
          "name": "from",
          "type": "address"
        },
        {
          "internalType": "address",
          "name": "to",
          "type": "address"
        },
        {
          "internalType": "uint256",
          "name": "tokenId",
          "type": "uint256"
        },
        {
          "internalType": "bytes",
          "name": "data",
          "type": "bytes"
        }
      ],
      "name": "safeTransferFrom",
      "outputs": [],
      "stateMutability": "nonpayable",
      "type": "function"
    },
    {
      "inputs": [
        {
          "internalType": "address",
          "name": "operator",
          "type": "address"
        },
        {
          "internalType": "bool",
          "name": "approved",
          "type": "bool"
        }
      ],
      "name": "setApprovalForAll",
      "outputs": [],
      "stateMutability": "nonpayable",
      "type": "function"
    },
    {
      "inputs": [
        {
          "internalType": "bytes4",
          "name": "interfaceId",
          "type": "bytes4"
        }
      ],
      "name": "supportsInterface",
      "outputs": [
        {
          "internalType": "bool",
          "name": "",
          "type": "bool"
        }
      ],
      "stateMutability": "view",
      "type": "function"
    },
    {
      "inputs": [],
      "name": "symbol",
      "outputs": [
        {
          "internalType": "string",
          "name": "",
          "type": "string"
        }
      ],
      "stateMutability": "view",
      "type": "function"
    },
    {
      "inputs": [
        {
          "internalType": "uint256",
          "name": "index",
          "type": "uint256"
        }
      ],
      "name": "tokenByIndex",
      "outputs": [
        {
          "internalType": "uint256",
          "name": "",
          "type": "uint256"
        }
      ],
      "stateMutability": "view",
      "type": "function"
    },
    {
      "inputs": [
        {
          "internalType": "address",
          "name": "owner",
          "type": "address"
        },
        {
          "internalType": "uint256",
          "name": "index",
          "type": "uint256"
        }
      ],
      "name": "tokenOfOwnerByIndex",
      "outputs": [
        {
          "internalType": "uint256",
          "name": "",
          "type": "uint256"
        }
      ],
      "stateMutability": "view",
      "type": "function"
    },
    {
      "inputs": [
        {
          "internalType": "uint256",
          "name": "tokenId",
          "type": "uint256"
        }
      ],
      "name": "tokenURI",
      "outputs": [
        {
          "internalType": "string",
          "name": "",
          "type": "string"
        }
      ],
      "stateMutability": "view",
      "type": "function"
    },
    {
      "inputs": [],
      "name": "totalSupply",
      "outputs": [
        {
          "internalType": "uint256",
          "name": "",
          "type": "uint256"
        }
      ],
      "stateMutability": "view",
      "type": "function"
    },
    {
      "inputs": [
        {
          "internalType": "address",
          "name": "from",
          "type": "address"
        },
        {
          "internalType": "address",
          "name": "to",
          "type": "address"
        },
        {
          "internalType": "uint256",
          "name": "tokenId",
          "type": "uint256"
        }
      ],
      "name": "transferFrom",
      "outputs": [],
      "stateMutability": "nonpayable",
      "type": "function"
    },
    {
      "inputs": [
        {
          "internalType": "address",
          "name": "newOwner",
          "type": "address"
        }
      ],
      "name": "transferOwnership",
      "outputs": [],
      "stateMutability": "nonpayable",
      "type": "function"
    }
  ],
  "bytecode": "0x60806040523480156200001157600080fd5b506040518060400160405280600b81526020017f56696e746167654974656d0000000000000000000000000000000000000000008152506040518060400160405280600481526020017f564e465400000000000000000000000000000000000000000000000000000000815250816000908051906020019062000096929190620001a6565b508060019080519060200190620000af929190620001a6565b505050620000d2620000c6620000d860201b60201c565b620000e060201b60201c565b620002bb565b600033905090565b6000600b60009054906101000a900473ffffffffffffffffffffffffffffffffffffffff16905081600b60006101000a81548173ffffffffffffffffffffffffffffffffffffffff021916908373ffffffffffffffffffffffffffffffffffffffff1602179055508173ffffffffffffffffffffffffffffffffffffffff168173ffffffffffffffffffffffffffffffffffffffff167f8be0079c531659141344cd1fd0a4f28419497f9722a3daafe3b4186f6b6457e060405160405180910390a35050565b828054620001b49062000285565b90600052602060002090601f016020900481019282620001d8576000855562000224565b82601f10620001f357805160ff191683800117855562000224565b8280016001018555821562000224579182015b828111156200022357825182559160200191906001019062000206565b5b50905062000233919062000237565b5090565b5b808211156200025257600081600090555060010162000238565b5090565b7f4e487b7100000000000000000000000000000000000000000000000000000000600052602260045260246000fd5b600060028204905060018216806200029e57607f821691505b60208210811415620002b557620002b462000256565b5b50919050565b6139a280620002cb6000396000f3fe608060405234801561001057600080fd5b50600436106101375760003560e01c80636352211e116100b8578063a22cb4651161007c578063a22cb4651461034e578063b88d4fde1461036a578063c87b56dd14610386578063da2ed03e146103b6578063e985e9c5146103e6578063f2fde38b1461041657610137565b80636352211e146102a857806370a08231146102d8578063715018a6146103085780638da5cb5b1461031257806395d89b411461033057610137565b806323b872dd116100ff57806323b872dd146101f45780632f745c591461021057806342842e0e1461024057806342966c681461025c5780634f6ccce71461027857610137565b806301ffc9a71461013c57806306fdde031461016c578063081812fc1461018a578063095ea7b3146101ba57806318160ddd146101d6575b600080fd5b6101566004803603810190610151919061274d565b610432565b6040516101639190612795565b60405180910390f35b610174610444565b6040516101819190612849565b60405180910390f35b6101a4600480360381019061019f91906128a1565b6104d6565b6040516101b1919061290f565b60405180910390f35b6101d460048036038101906101cf9190612956565b61051c565b005b6101de610634565b6040516101eb91906129a5565b60405180910390f35b61020e600480360381019061020991906129c0565b610641565b005b61022a60048036038101906102259190612956565b6106a1565b60405161023791906129a5565b60405180910390f35b61025a600480360381019061025591906129c0565b610746565b005b610276600480360381019061027191906128a1565b610766565b005b610292600480360381019061028d91906128a1565b6107c2565b60405161029f91906129a5565b60405180910390f35b6102c260048036038101906102bd91906128a1565b610833565b6040516102cf919061290f565b60405180910390f35b6102f260048036038101906102ed9190612a13565b6108ba565b6040516102ff91906129a5565b60405180910390f35b610310610972565b005b61031a610986565b604051610327919061290f565b60405180910390f35b6103386109b0565b6040516103459190612849565b60405180910390f35b61036860048036038101906103639190612a6c565b610a42565b005b610384600480360381019061037f9190612be1565b610a58565b005b6103a0600480360381019061039b91906128a1565b610aba565b6040516103ad9190612849565b60405180910390f35b6103d060048036038101906103cb9190612d05565b610acc565b6040516103dd91906129a5565b60405180910390f35b61040060048036038101906103fb9190612d4e565b610b03565b60405161040d9190612795565b60405180910390f35b610430600480360381019061042b9190612a13565b610b97565b005b600061043d82610c1b565b9050919050565b60606000805461045390612dbd565b80601f016020809104026020016040519081016040528092919081815260200182805461047f90612dbd565b80156104cc5780601f106104a1576101008083540402835291602001916104cc565b820191906000526020600020905b8154815290600101906020018083116104af57829003601f168201915b5050505050905090565b60006104e182610c95565b6004600083815260200190815260200160002060009054906101000a900473ffffffffffffffffffffffffffffffffffffffff169050919050565b600061052782610833565b90508073ffffffffffffffffffffffffffffffffffffffff168373ffffffffffffffffffffffffffffffffffffffff161415610598576040517f08c379a000000000000000000000000000000000000000000000000000000000815260040161058f90612e61565b60405180910390fd5b8073ffffffffffffffffffffffffffffffffffffffff166105b7610ce0565b73ffffffffffffffffffffffffffffffffffffffff1614806105e657506105e5816105e0610ce0565b610b03565b5b610625576040517f08c379a000000000000000000000000000000000000000000000000000000000815260040161061c90612ef3565b60405180910390fd5b61062f8383610ce8565b505050565b6000600880549050905090565b61065261064c610ce0565b82610da1565b610691576040517f08c379a000000000000000000000000000000000000000000000000000000000815260040161068890612f85565b60405180910390fd5b61069c838383610e36565b505050565b60006106ac836108ba565b82106106ed576040517f08c379a00000000000000000000000000000000000000000000000000000000081526004016106e490613017565b60405180910390fd5b600660008473ffffffffffffffffffffffffffffffffffffffff1673ffffffffffffffffffffffffffffffffffffffff168152602001908152602001600020600083815260200190815260200160002054905092915050565b61076183838360405180602001604052806000815250610a58565b505050565b610777610771610ce0565b82610da1565b6107b6576040517f08c379a00000000000000000000000000000000000000000000000000000000081526004016107ad90612f85565b60405180910390fd5b6107bf81611130565b50565b60006107cc610634565b821061080d576040517f08c379a0000000000000000000000000000000000000000000000000000000008152600401610804906130a9565b60405180910390fd5b60088281548110610821576108206130c9565b5b90600052602060002001549050919050565b60008061083f8361113c565b9050600073ffffffffffffffffffffffffffffffffffffffff168173ffffffffffffffffffffffffffffffffffffffff1614156108b1576040517f08c379a00000000000000000000000000000000000000000000000000000000081526004016108a890613144565b60405180910390fd5b80915050919050565b60008073ffffffffffffffffffffffffffffffffffffffff168273ffffffffffffffffffffffffffffffffffffffff16141561092b576040517f08c379a0000000000000000000000000000000000000000000000000000000008152600401610922906131d6565b60405180910390fd5b600360008373ffffffffffffffffffffffffffffffffffffffff1673ffffffffffffffffffffffffffffffffffffffff168152602001908152602001600020549050919050565b61097a611179565b61098460006111f7565b565b6000600b60009054906101000a900473ffffffffffffffffffffffffffffffffffffffff16905090565b6060600180546109bf90612dbd565b80601f01602080910402602001604051908101604052809291908181526020018280546109eb90612dbd565b8015610a385780601f10610a0d57610100808354040283529160200191610a38565b820191906000526020600020905b815481529060010190602001808311610a1b57829003601f168201915b5050505050905090565b610a54610a4d610ce0565b83836112bd565b5050565b610a69610a63610ce0565b83610da1565b610aa8576040517f08c379a0000000000000000000000000000000000000000000000000000000008152600401610a9f90612f85565b60405180910390fd5b610ab48484848461142a565b50505050565b6060610ac582611486565b9050919050565b6000610ad8600c611599565b6000610ae4600c6115af565b9050610af033826115bd565b610afa81846115db565b80915050919050565b6000600560008473ffffffffffffffffffffffffffffffffffffffff1673ffffffffffffffffffffffffffffffffffffffff16815260200190815260200160002060008373ffffffffffffffffffffffffffffffffffffffff1673ffffffffffffffffffffffffffffffffffffffff16815260200190815260200160002060009054906101000a900460ff16905092915050565b610b9f611179565b600073ffffffffffffffffffffffffffffffffffffffff168173ffffffffffffffffffffffffffffffffffffffff161415610c0f576040517f08c379a0000000000000000000000000000000000000000000000000000000008152600401610c0690613268565b60405180910390fd5b610c18816111f7565b50565b60007f780e9d63000000000000000000000000000000000000000000000000000000007bffffffffffffffffffffffffffffffffffffffffffffffffffffffff1916827bffffffffffffffffffffffffffffffffffffffffffffffffffffffff19161480610c8e5750610c8d8261164f565b5b9050919050565b610c9e81611731565b610cdd576040517f08c379a0000000000000000000000000000000000000000000000000000000008152600401610cd490613144565b60405180910390fd5b50565b600033905090565b816004600083815260200190815260200160002060006101000a81548173ffffffffffffffffffffffffffffffffffffffff021916908373ffffffffffffffffffffffffffffffffffffffff160217905550808273ffffffffffffffffffffffffffffffffffffffff16610d5b83610833565b73ffffffffffffffffffffffffffffffffffffffff167f8c5be1e5ebec7d5bd14f71427d1e84f3dd0314c0f7b2291e5b200ac8c7c3b92560405160405180910390a45050565b600080610dad83610833565b90508073ffffffffffffffffffffffffffffffffffffffff168473ffffffffffffffffffffffffffffffffffffffff161480610def5750610dee8185610b03565b5b80610e2d57508373ffffffffffffffffffffffffffffffffffffffff16610e15846104d6565b73ffffffffffffffffffffffffffffffffffffffff16145b91505092915050565b8273ffffffffffffffffffffffffffffffffffffffff16610e5682610833565b73ffffffffffffffffffffffffffffffffffffffff1614610eac576040517f08c379a0000000000000000000000000000000000000000000000000000000008152600401610ea3906132fa565b60405180910390fd5b600073ffffffffffffffffffffffffffffffffffffffff168273ffffffffffffffffffffffffffffffffffffffff161415610f1c576040517f08c379a0000000000000000000000000000000000000000000000000000000008152600401610f139061338c565b60405180910390fd5b610f298383836001611772565b8273ffffffffffffffffffffffffffffffffffffffff16610f4982610833565b73ffffffffffffffffffffffffffffffffffffffff1614610f9f576040517f08c379a0000000000000000000000000000000000000000000000000000000008152600401610f96906132fa565b60405180910390fd5b6004600082815260200190815260200160002060006101000a81549073ffffffffffffffffffffffffffffffffffffffff02191690556001600360008573ffffffffffffffffffffffffffffffffffffffff1673ffffffffffffffffffffffffffffffffffffffff168152602001908152602001600020600082825403925050819055506001600360008473ffffffffffffffffffffffffffffffffffffffff1673ffffffffffffffffffffffffffffffffffffffff16815260200190815260200160002060008282540192505081905550816002600083815260200190815260200160002060006101000a81548173ffffffffffffffffffffffffffffffffffffffff021916908373ffffffffffffffffffffffffffffffffffffffff160217905550808273ffffffffffffffffffffffffffffffffffffffff168473ffffffffffffffffffffffffffffffffffffffff167fddf252ad1be2c89b69c2b068fc378daa952ba7f163c4a11628f55a4df523b3ef60405160405180910390a461112b8383836001611784565b505050565b6111398161178a565b50565b60006002600083815260200190815260200160002060009054906101000a900473ffffffffffffffffffffffffffffffffffffffff169050919050565b611181610ce0565b73ffffffffffffffffffffffffffffffffffffffff1661119f610986565b73ffffffffffffffffffffffffffffffffffffffff16146111f5576040517f08c379a00000000000000000000000000000000000000000000000000000000081526004016111ec906133f8565b60405180910390fd5b565b6000600b60009054906101000a900473ffffffffffffffffffffffffffffffffffffffff16905081600b60006101000a81548173ffffffffffffffffffffffffffffffffffffffff021916908373ffffffffffffffffffffffffffffffffffffffff1602179055508173ffffffffffffffffffffffffffffffffffffffff168173ffffffffffffffffffffffffffffffffffffffff167f8be0079c531659141344cd1fd0a4f28419497f9722a3daafe3b4186f6b6457e060405160405180910390a35050565b8173ffffffffffffffffffffffffffffffffffffffff168373ffffffffffffffffffffffffffffffffffffffff16141561132c576040517f08c379a000000000000000000000000000000000000000000000000000000000815260040161132390613464565b60405180910390fd5b80600560008573ffffffffffffffffffffffffffffffffffffffff1673ffffffffffffffffffffffffffffffffffffffff16815260200190815260200160002060008473ffffffffffffffffffffffffffffffffffffffff1673ffffffffffffffffffffffffffffffffffffffff16815260200190815260200160002060006101000a81548160ff0219169083151502179055508173ffffffffffffffffffffffffffffffffffffffff168373ffffffffffffffffffffffffffffffffffffffff167f17307eab39ab6107e8899845ad3d59bd9653f200f220920489ca2b5937696c318360405161141d9190612795565b60405180910390a3505050565b611435848484610e36565b611441848484846117dd565b611480576040517f08c379a0000000000000000000000000000000000000000000000000000000008152600401611477906134f6565b60405180910390fd5b50505050565b606061149182610c95565b6000600a600084815260200190815260200160002080546114b190612dbd565b80601f01602080910402602001604051908101604052809291908181526020018280546114dd90612dbd565b801561152a5780601f106114ff5761010080835404028352916020019161152a565b820191906000526020600020905b81548152906001019060200180831161150d57829003601f168201915b50505050509050600061153b611974565b9050600081511415611551578192505050611594565b60008251111561158657808260405160200161156e929190613552565b60405160208183030381529060405292505050611594565b61158f8461198b565b925050505b919050565b6001816000016000828254019250508190555050565b600081600001549050919050565b6115d78282604051806020016040528060008152506119f3565b5050565b6115e482611731565b611623576040517f08c379a000000000000000000000000000000000000000000000000000000000815260040161161a906135e8565b60405180910390fd5b80600a6000848152602001908152602001600020908051906020019061164a9291906125fe565b505050565b60007f80ac58cd000000000000000000000000000000000000000000000000000000007bffffffffffffffffffffffffffffffffffffffffffffffffffffffff1916827bffffffffffffffffffffffffffffffffffffffffffffffffffffffff1916148061171a57507f5b5e139f000000000000000000000000000000000000000000000000000000007bffffffffffffffffffffffffffffffffffffffffffffffffffffffff1916827bffffffffffffffffffffffffffffffffffffffffffffffffffffffff1916145b8061172a575061172982611a4e565b5b9050919050565b60008073ffffffffffffffffffffffffffffffffffffffff166117538361113c565b73ffffffffffffffffffffffffffffffffffffffff1614159050919050565b61177e84848484611ab8565b50505050565b50505050565b61179381611c18565b6000600a600083815260200190815260200160002080546117b390612dbd565b9050146117da57600a600082815260200190815260200160002060006117d99190612684565b5b50565b60006117fe8473ffffffffffffffffffffffffffffffffffffffff16611d66565b15611967578373ffffffffffffffffffffffffffffffffffffffff1663150b7a02611827610ce0565b8786866040518563ffffffff1660e01b8152600401611849949392919061365d565b602060405180830381600087803b15801561186357600080fd5b505af192505050801561189457506040513d601f19601f8201168201806040525081019061189191906136be565b60015b611917573d80600081146118c4576040519150601f19603f3d011682016040523d82523d6000602084013e6118c9565b606091505b5060008151141561190f576040517f08c379a0000000000000000000000000000000000000000000000000000000008152600401611906906134f6565b60405180910390fd5b805181602001fd5b63150b7a0260e01b7bffffffffffffffffffffffffffffffffffffffffffffffffffffffff1916817bffffffffffffffffffffffffffffffffffffffffffffffffffffffff19161491505061196c565b600190505b949350505050565b606060405180602001604052806000815250905090565b606061199682610c95565b60006119a0611974565b905060008151116119c057604051806020016040528060008152506119eb565b806119ca84611d89565b6040516020016119db929190613552565b6040516020818303038152906040525b915050919050565b6119fd8383611e61565b611a0a60008484846117dd565b611a49576040517f08c379a0000000000000000000000000000000000000000000000000000000008152600401611a40906134f6565b60405180910390fd5b505050565b60007f01ffc9a7000000000000000000000000000000000000000000000000000000007bffffffffffffffffffffffffffffffffffffffffffffffffffffffff1916827bffffffffffffffffffffffffffffffffffffffffffffffffffffffff1916149050919050565b611ac48484848461207f565b6001811115611b08576040517f08c379a0000000000000000000000000000000000000000000000000000000008152600401611aff9061375d565b60405180910390fd5b6000829050600073ffffffffffffffffffffffffffffffffffffffff168573ffffffffffffffffffffffffffffffffffffffff161415611b5057611b4b816121a5565b611b8f565b8373ffffffffffffffffffffffffffffffffffffffff168573ffffffffffffffffffffffffffffffffffffffff1614611b8e57611b8d85826121ee565b5b5b600073ffffffffffffffffffffffffffffffffffffffff168473ffffffffffffffffffffffffffffffffffffffff161415611bd257611bcd8161235b565b611c11565b8473ffffffffffffffffffffffffffffffffffffffff168473ffffffffffffffffffffffffffffffffffffffff1614611c1057611c0f848261242c565b5b5b5050505050565b6000611c2382610833565b9050611c33816000846001611772565b611c3c82610833565b90506004600083815260200190815260200160002060006101000a81549073ffffffffffffffffffffffffffffffffffffffff02191690556001600360008373ffffffffffffffffffffffffffffffffffffffff1673ffffffffffffffffffffffffffffffffffffffff168152602001908152602001600020600082825403925050819055506002600083815260200190815260200160002060006101000a81549073ffffffffffffffffffffffffffffffffffffffff021916905581600073ffffffffffffffffffffffffffffffffffffffff168273ffffffffffffffffffffffffffffffffffffffff167fddf252ad1be2c89b69c2b068fc378daa952ba7f163c4a11628f55a4df523b3ef60405160405180910390a4611d62816000846001611784565b5050565b6000808273ffffffffffffffffffffffffffffffffffffffff163b119050919050565b606060006001611d98846124ab565b01905060008167ffffffffffffffff811115611db757611db6612ab6565b5b6040519080825280601f01601f191660200182016040528015611de95781602001600182028036833780820191505090505b509050600082602001820190505b600115611e56578080600190039150507f3031323334353637383961626364656600000000000000000000000000000000600a86061a8153600a8581611e4057611e3f61377d565b5b0494506000851415611e5157611e56565b611df7565b819350505050919050565b600073ffffffffffffffffffffffffffffffffffffffff168273ffffffffffffffffffffffffffffffffffffffff161415611ed1576040517f08c379a0000000000000000000000000000000000000000000000000000000008152600401611ec8906137f8565b60405180910390fd5b611eda81611731565b15611f1a576040517f08c379a0000000000000000000000000000000000000000000000000000000008152600401611f1190613864565b60405180910390fd5b611f28600083836001611772565b611f3181611731565b15611f71576040517f08c379a0000000000000000000000000000000000000000000000000000000008152600401611f6890613864565b60405180910390fd5b6001600360008473ffffffffffffffffffffffffffffffffffffffff1673ffffffffffffffffffffffffffffffffffffffff16815260200190815260200160002060008282540192505081905550816002600083815260200190815260200160002060006101000a81548173ffffffffffffffffffffffffffffffffffffffff021916908373ffffffffffffffffffffffffffffffffffffffff160217905550808273ffffffffffffffffffffffffffffffffffffffff16600073ffffffffffffffffffffffffffffffffffffffff167fddf252ad1be2c89b69c2b068fc378daa952ba7f163c4a11628f55a4df523b3ef60405160405180910390a461207b600083836001611784565b5050565b600181111561219f57600073ffffffffffffffffffffffffffffffffffffffff168473ffffffffffffffffffffffffffffffffffffffff16146121135780600360008673ffffffffffffffffffffffffffffffffffffffff1673ffffffffffffffffffffffffffffffffffffffff168152602001908152602001600020600082825461210b91906138b3565b925050819055505b600073ffffffffffffffffffffffffffffffffffffffff168373ffffffffffffffffffffffffffffffffffffffff161461219e5780600360008573ffffffffffffffffffffffffffffffffffffffff1673ffffffffffffffffffffffffffffffffffffffff168152602001908152602001600020600082825461219691906138e7565b925050819055505b5b50505050565b6008805490506009600083815260200190815260200160002081905550600881908060018154018082558091505060019003906000526020600020016000909190919091505550565b600060016121fb846108ba565b61220591906138b3565b90506000600760008481526020019081526020016000205490508181146122ea576000600660008673ffffffffffffffffffffffffffffffffffffffff1673ffffffffffffffffffffffffffffffffffffffff168152602001908152602001600020600084815260200190815260200160002054905080600660008773ffffffffffffffffffffffffffffffffffffffff1673ffffffffffffffffffffffffffffffffffffffff168152602001908152602001600020600084815260200190815260200160002081905550816007600083815260200190815260200160002081905550505b6007600084815260200190815260200160002060009055600660008573ffffffffffffffffffffffffffffffffffffffff1673ffffffffffffffffffffffffffffffffffffffff16815260200190815260200160002060008381526020019081526020016000206000905550505050565b6000600160088054905061236f91906138b3565b905060006009600084815260200190815260200160002054905060006008838154811061239f5761239e6130c9565b5b9060005260206000200154905080600883815481106123c1576123c06130c9565b5b9060005260206000200181905550816009600083815260200190815260200160002081905550600960008581526020019081526020016000206000905560088054806124105761240f61393d565b5b6001900381819060005260206000200160009055905550505050565b6000612437836108ba565b905081600660008573ffffffffffffffffffffffffffffffffffffffff1673ffffffffffffffffffffffffffffffffffffffff168152602001908152602001600020600083815260200190815260200160002081905550806007600084815260200190815260200160002081905550505050565b600080600090507a184f03e93ff9f4daa797ed6e38ed64bf6a1f0100000000000000008310612509577a184f03e93ff9f4daa797ed6e38ed64bf6a1f01000000000000000083816124ff576124fe61377d565b5b0492506040810190505b6d04ee2d6d415b85acef81000000008310612546576d04ee2d6d415b85acef8100000000838161253c5761253b61377d565b5b0492506020810190505b662386f26fc10000831061257557662386f26fc10000838161256b5761256a61377d565b5b0492506010810190505b6305f5e100831061259e576305f5e10083816125945761259361377d565b5b0492506008810190505b61271083106125c35761271083816125b9576125b861377d565b5b0492506004810190505b606483106125e657606483816125dc576125db61377d565b5b0492506002810190505b600a83106125f5576001810190505b80915050919050565b82805461260a90612dbd565b90600052602060002090601f01602090048101928261262c5760008555612673565b82601f1061264557805160ff1916838001178555612673565b82800160010185558215612673579182015b82811115612672578251825591602001919060010190612657565b5b50905061268091906126c4565b5090565b50805461269090612dbd565b6000825580601f106126a257506126c1565b601f0160209004906000526020600020908101906126c091906126c4565b5b50565b5b808211156126dd5760008160009055506001016126c5565b5090565b6000604051905090565b600080fd5b600080fd5b60007fffffffff0000000000000000000000000000000000000000000000000000000082169050919050565b61272a816126f5565b811461273557600080fd5b50565b60008135905061274781612721565b92915050565b600060208284031215612763576127626126eb565b5b600061277184828501612738565b91505092915050565b60008115159050919050565b61278f8161277a565b82525050565b60006020820190506127aa6000830184612786565b92915050565b600081519050919050565b600082825260208201905092915050565b60005b838110156127ea5780820151818401526020810190506127cf565b838111156127f9576000848401525b50505050565b6000601f19601f8301169050919050565b600061281b826127b0565b61282581856127bb565b93506128358185602086016127cc565b61283e816127ff565b840191505092915050565b600060208201905081810360008301526128638184612810565b905092915050565b6000819050919050565b61287e8161286b565b811461288957600080fd5b50565b60008135905061289b81612875565b92915050565b6000602082840312156128b7576128b66126eb565b5b60006128c58482850161288c565b91505092915050565b600073ffffffffffffffffffffffffffffffffffffffff82169050919050565b60006128f9826128ce565b9050919050565b612909816128ee565b82525050565b60006020820190506129246000830184612900565b92915050565b612933816128ee565b811461293e57600080fd5b50565b6000813590506129508161292a565b92915050565b6000806040838503121561296d5761296c6126eb565b5b600061297b85828601612941565b925050602061298c8582860161288c565b9150509250929050565b61299f8161286b565b82525050565b60006020820190506129ba6000830184612996565b92915050565b6000806000606084860312156129d9576129d86126eb565b5b60006129e786828701612941565b93505060206129f886828701612941565b9250506040612a098682870161288c565b9150509250925092565b600060208284031215612a2957612a286126eb565b5b6000612a3784828501612941565b91505092915050565b612a498161277a565b8114612a5457600080fd5b50565b600081359050612a6681612a40565b92915050565b60008060408385031215612a8357612a826126eb565b5b6000612a9185828601612941565b9250506020612aa285828601612a57565b9150509250929050565b600080fd5b600080fd5b7f4e487b7100000000000000000000000000000000000000000000000000000000600052604160045260246000fd5b612aee826127ff565b810181811067ffffffffffffffff82111715612b0d57612b0c612ab6565b5b80604052505050565b6000612b206126e1565b9050612b2c8282612ae5565b919050565b600067ffffffffffffffff821115612b4c57612b4b612ab6565b5b612b55826127ff565b9050602081019050919050565b82818337600083830152505050565b6000612b84612b7f84612b31565b612b16565b905082815260208101848484011115612ba057612b9f612ab1565b5b612bab848285612b62565b509392505050565b600082601f830112612bc857612bc7612aac565b5b8135612bd8848260208601612b71565b91505092915050565b60008060008060808587031215612bfb57612bfa6126eb565b5b6000612c0987828801612941565b9450506020612c1a87828801612941565b9350506040612c2b8782880161288c565b925050606085013567ffffffffffffffff811115612c4c57612c4b6126f0565b5b612c5887828801612bb3565b91505092959194509250565b600067ffffffffffffffff821115612c7f57612c7e612ab6565b5b612c88826127ff565b9050602081019050919050565b6000612ca8612ca384612c64565b612b16565b905082815260208101848484011115612cc457612cc3612ab1565b5b612ccf848285612b62565b509392505050565b600082601f830112612cec57612ceb612aac565b5b8135612cfc848260208601612c95565b91505092915050565b600060208284031215612d1b57612d1a6126eb565b5b600082013567ffffffffffffffff811115612d3957612d386126f0565b5b612d4584828501612cd7565b91505092915050565b60008060408385031215612d6557612d646126eb565b5b6000612d7385828601612941565b9250506020612d8485828601612941565b9150509250929050565b7f4e487b7100000000000000000000000000000000000000000000000000000000600052602260045260246000fd5b60006002820490506001821680612dd557607f821691505b60208210811415612de957612de8612d8e565b5b50919050565b7f4552433732313a20617070726f76616c20746f2063757272656e74206f776e6560008201527f7200000000000000000000000000000000000000000000000000000000000000602082015250565b6000612e4b6021836127bb565b9150612e5682612def565b604082019050919050565b60006020820190508181036000830152612e7a81612e3e565b9050919050565b7f4552433732313a20617070726f76652063616c6c6572206973206e6f7420746f60008201527f6b656e206f776e6572206f7220617070726f76656420666f7220616c6c000000602082015250565b6000612edd603d836127bb565b9150612ee882612e81565b604082019050919050565b60006020820190508181036000830152612f0c81612ed0565b9050919050565b7f4552433732313a2063616c6c6572206973206e6f7420746f6b656e206f776e6560008201527f72206f7220617070726f76656400000000000000000000000000000000000000602082015250565b6000612f6f602d836127bb565b9150612f7a82612f13565b604082019050919050565b60006020820190508181036000830152612f9e81612f62565b9050919050565b7f455243373231456e756d657261626c653a206f776e657220696e646578206f7560008201527f74206f6620626f756e6473000000000000000000000000000000000000000000602082015250565b6000613001602b836127bb565b915061300c82612fa5565b604082019050919050565b6000602082019050818103600083015261303081612ff4565b9050919050565b7f455243373231456e756d657261626c653a20676c6f62616c20696e646578206f60008201527f7574206f6620626f756e64730000000000000000000000000000000000000000602082015250565b6000613093602c836127bb565b915061309e82613037565b604082019050919050565b600060208201905081810360008301526130c281613086565b9050919050565b7f4e487b7100000000000000000000000000000000000000000000000000000000600052603260045260246000fd5b7f4552433732313a20696e76616c696420746f6b656e2049440000000000000000600082015250565b600061312e6018836127bb565b9150613139826130f8565b602082019050919050565b6000602082019050818103600083015261315d81613121565b9050919050565b7f4552433732313a2061646472657373207a65726f206973206e6f74206120766160008201527f6c6964206f776e65720000000000000000000000000000000000000000000000602082015250565b60006131c06029836127bb565b91506131cb82613164565b604082019050919050565b600060208201905081810360008301526131ef816131b3565b9050919050565b7f4f776e61626c653a206e6577206f776e657220697320746865207a65726f206160008201527f6464726573730000000000000000000000000000000000000000000000000000602082015250565b60006132526026836127bb565b915061325d826131f6565b604082019050919050565b6000602082019050818103600083015261328181613245565b9050919050565b7f4552433732313a207472616e736665722066726f6d20696e636f72726563742060008201527f6f776e6572000000000000000000000000000000000000000000000000000000602082015250565b60006132e46025836127bb565b91506132ef82613288565b604082019050919050565b60006020820190508181036000830152613313816132d7565b9050919050565b7f4552433732313a207472616e7366657220746f20746865207a65726f2061646460008201527f7265737300000000000000000000000000000000000000000000000000000000602082015250565b60006133766024836127bb565b91506133818261331a565b604082019050919050565b600060208201905081810360008301526133a581613369565b9050919050565b7f4f776e61626c653a2063616c6c6572206973206e6f7420746865206f776e6572600082015250565b60006133e26020836127bb565b91506133ed826133ac565b602082019050919050565b60006020820190508181036000830152613411816133d5565b9050919050565b7f4552433732313a20617070726f766520746f2063616c6c657200000000000000600082015250565b600061344e6019836127bb565b915061345982613418565b602082019050919050565b6000602082019050818103600083015261347d81613441565b9050919050565b7f4552433732313a207472616e7366657220746f206e6f6e20455243373231526560008201527f63656976657220696d706c656d656e7465720000000000000000000000000000602082015250565b60006134e06032836127bb565b91506134eb82613484565b604082019050919050565b6000602082019050818103600083015261350f816134d3565b9050919050565b600081905092915050565b600061352c826127b0565b6135368185613516565b93506135468185602086016127cc565b80840191505092915050565b600061355e8285613521565b915061356a8284613521565b91508190509392505050565b7f45524337323155524953746f726167653a2055524920736574206f66206e6f6e60008201527f6578697374656e7420746f6b656e000000000000000000000000000000000000602082015250565b60006135d2602e836127bb565b91506135dd82613576565b604082019050919050565b60006020820190508181036000830152613601816135c5565b9050919050565b600081519050919050565b600082825260208201905092915050565b600061362f82613608565b6136398185613613565b93506136498185602086016127cc565b613652816127ff565b840191505092915050565b60006080820190506136726000830187612900565b61367f6020830186612900565b61368c6040830185612996565b818103606083015261369e8184613624565b905095945050505050565b6000815190506136b881612721565b92915050565b6000602082840312156136d4576136d36126eb565b5b60006136e2848285016136a9565b91505092915050565b7f455243373231456e756d657261626c653a20636f6e736563757469766520747260008201527f616e7366657273206e6f7420737570706f727465640000000000000000000000602082015250565b60006137476035836127bb565b9150613752826136eb565b604082019050919050565b600060208201905081810360008301526137768161373a565b9050919050565b7f4e487b7100000000000000000000000000000000000000000000000000000000600052601260045260246000fd5b7f4552433732313a206d696e7420746f20746865207a65726f2061646472657373600082015250565b60006137e26020836127bb565b91506137ed826137ac565b602082019050919050565b60006020820190508181036000830152613811816137d5565b9050919050565b7f4552433732313a20746f6b656e20616c7265616479206d696e74656400000000600082015250565b600061384e601c836127bb565b915061385982613818565b602082019050919050565b6000602082019050818103600083015261387d81613841565b9050919050565b7f4e487b7100000000000000000000000000000000000000000000000000000000600052601160045260246000fd5b60006138be8261286b565b91506138c98361286b565b9250828210156138dc576138db613884565b5b828203905092915050565b60006138f28261286b565b91506138fd8361286b565b9250827fffffffffffffffffffffffffffffffffffffffffffffffffffffffffffffffff0382111561393257613931613884565b5b828201905092915050565b7f4e487b7100000000000000000000000000000000000000000000000000000000600052603160045260246000fdfea264697066735822122010fdb4b72aafabbcaff45c6cd49d23ce7a38778123b4f9d2b778ae256ee6112d64736f6c63430008090033",
  "linkReferences": {},
  "deployedLinkReferences": {}
}