{
  "_format": "hh-sol-artifact-1",
  "contractName": "MyNFT",
  "sourceName": "contracts/MyNFT.sol",
  "abi": [
    {
      "inputs": [],
      "stateMutability": "nonpayable",
      "type": "constructor"
    },
    {
      "anonymous": false,
      "inputs": [
        {
          "indexed": true,
          "internalType": "address",
          "name": "owner",
          "type": "address"
        },
        {
          "indexed": true,
          "internalType": "address",
          "name": "approved",
          "type": "address"
        },
        {
          "indexed": true,
          "internalType": "uint256",
          "name": "tokenId",
          "type": "uint256"
        }
      ],
      "name": "Approval",
      "type": "event"
    },
    {
      "anonymous": false,
      "inputs": [
        {
          "indexed": true,
          "internalType": "address",
          "name": "owner",
          "type": "address"
        },
        {
          "indexed": true,
          "internalType": "address",
          "name": "operator",
          "type": "address"
        },
        {
          "indexed": false,
          "internalType": "bool",
          "name": "approved",
          "type": "bool"
        }
      ],
      "name": "ApprovalForAll",
      "type": "event"
    },
    {
      "anonymous": false,
      "inputs": [
        {
          "indexed": true,
          "internalType": "address",
          "name": "previousOwner",
          "type": "address"
        },
        {
          "indexed": true,
          "internalType": "address",
          "name": "newOwner",
          "type": "address"
        }
      ],
      "name": "OwnershipTransferred",
      "type": "event"
    },
    {
      "anonymous": false,
      "inputs": [
        {
          "indexed": true,
          "internalType": "address",
          "name": "from",
          "type": "address"
        },
        {
          "indexed": true,
          "internalType": "address",
          "name": "to",
          "type": "address"
        },
        {
          "indexed": true,
          "internalType": "uint256",
          "name": "tokenId",
          "type": "uint256"
        }
      ],
      "name": "Transfer",
      "type": "event"
    },
    {
      "inputs": [
        {
          "internalType": "address",
          "name": "to",
          "type": "address"
        },
        {
          "internalType": "uint256",
          "name": "tokenId",
          "type": "uint256"
        }
      ],
      "name": "approve",
      "outputs": [],
      "stateMutability": "nonpayable",
      "type": "function"
    },
    {
      "inputs": [
        {
          "internalType": "address",
          "name": "owner",
          "type": "address"
        }
      ],
      "name": "balanceOf",
      "outputs": [
        {
          "internalType": "uint256",
          "name": "",
          "type": "uint256"
        }
      ],
      "stateMutability": "view",
      "type": "function"
    },
    {
      "inputs": [
        {
          "internalType": "string",
          "name": "_tokenURI",
          "type": "string"
        }
      ],
      "name": "createNFT",
      "outputs": [
        {
          "internalType": "uint256",
          "name": "",
          "type": "uint256"
        }
      ],
      "stateMutability": "nonpayable",
      "type": "function"
    },
    {
      "inputs": [
        {
          "internalType": "uint256",
          "name": "tokenId",
          "type": "uint256"
        }
      ],
      "name": "getApproved",
      "outputs": [
        {
          "internalType": "address",
          "name": "",
          "type": "address"
        }
      ],
      "stateMutability": "view",
      "type": "function"
    },
    {
      "inputs": [
        {
          "internalType": "address",
          "name": "owner",
          "type": "address"
        },
        {
          "internalType": "address",
          "name": "operator",
          "type": "address"
        }
      ],
      "name": "isApprovedForAll",
      "outputs": [
        {
          "internalType": "bool",
          "name": "",
          "type": "bool"
        }
      ],
      "stateMutability": "view",
      "type": "function"
    },
    {
      "inputs": [],
      "name": "name",
      "outputs": [
        {
          "internalType": "string",
          "name": "",
          "type": "string"
        }
      ],
      "stateMutability": "view",
      "type": "function"
    },
    {
      "inputs": [],
      "name": "owner",
      "outputs": [
        {
          "internalType": "address",
          "name": "",
          "type": "address"
        }
      ],
      "stateMutability": "view",
      "type": "function"
    },
    {
      "inputs": [
        {
          "internalType": "uint256",
          "name": "tokenId",
          "type": "uint256"
        }
      ],
      "name": "ownerOf",
      "outputs": [
        {
          "internalType": "address",
          "name": "",
          "type": "address"
        }
      ],
      "stateMutability": "view",
      "type": "function"
    },
    {
      "inputs": [],
      "name": "renounceOwnership",
      "outputs": [],
      "stateMutability": "nonpayable",
      "type": "function"
    },
    {
      "inputs": [
        {
          "internalType": "address",
          "name": "from",
          "type": "address"
        },
        {
          "internalType": "address",
          "name": "to",
          "type": "address"
        },
        {
          "internalType": "uint256",
          "name": "tokenId",
          "type": "uint256"
        }
      ],
      "name": "safeTransferFrom",
      "outputs": [],
      "stateMutability": "nonpayable",
      "type": "function"
    },
    {
      "inputs": [
        {
          "internalType": "address",
          "name": "from",
          "type": "address"
        },
        {
          "internalType": "address",
          "name": "to",
          "type": "address"
        },
        {
          "internalType": "uint256",
          "name": "tokenId",
          "type": "uint256"
        },
        {
          "internalType": "bytes",
          "name": "_data",
          "type": "bytes"
        }
      ],
      "name": "safeTransferFrom",
      "outputs": [],
      "stateMutability": "nonpayable",
      "type": "function"
    },
    {
      "inputs": [
        {
          "internalType": "address",
          "name": "operator",
          "type": "address"
        },
        {
          "internalType": "bool",
          "name": "approved",
          "type": "bool"
        }
      ],
      "name": "setApprovalForAll",
      "outputs": [],
      "stateMutability": "nonpayable",
      "type": "function"
    },
    {
      "inputs": [
        {
          "internalType": "bytes4",
          "name": "interfaceId",
          "type": "bytes4"
        }
      ],
      "name": "supportsInterface",
      "outputs": [
        {
          "internalType": "bool",
          "name": "",
          "type": "bool"
        }
      ],
      "stateMutability": "view",
      "type": "function"
    },
    {
      "inputs": [],
      "name": "symbol",
      "outputs": [
        {
          "internalType": "string",
          "name": "",
          "type": "string"
        }
      ],
      "stateMutability": "view",
      "type": "function"
    },
    {
      "inputs": [
        {
          "internalType": "uint256",
          "name": "index",
          "type": "uint256"
        }
      ],
      "name": "tokenByIndex",
      "outputs": [
        {
          "internalType": "uint256",
          "name": "",
          "type": "uint256"
        }
      ],
      "stateMutability": "view",
      "type": "function"
    },
    {
      "inputs": [
        {
          "internalType": "address",
          "name": "owner",
          "type": "address"
        },
        {
          "internalType": "uint256",
          "name": "index",
          "type": "uint256"
        }
      ],
      "name": "tokenOfOwnerByIndex",
      "outputs": [
        {
          "internalType": "uint256",
          "name": "",
          "type": "uint256"
        }
      ],
      "stateMutability": "view",
      "type": "function"
    },
    {
      "inputs": [
        {
          "internalType": "uint256",
          "name": "tokenId",
          "type": "uint256"
        }
      ],
      "name": "tokenURI",
      "outputs": [
        {
          "internalType": "string",
          "name": "",
          "type": "string"
        }
      ],
      "stateMutability": "view",
      "type": "function"
    },
    {
      "inputs": [],
      "name": "totalSupply",
      "outputs": [
        {
          "internalType": "uint256",
          "name": "",
          "type": "uint256"
        }
      ],
      "stateMutability": "view",
      "type": "function"
    },
    {
      "inputs": [
        {
          "internalType": "address",
          "name": "from",
          "type": "address"
        },
        {
          "internalType": "address",
          "name": "to",
          "type": "address"
        },
        {
          "internalType": "uint256",
          "name": "tokenId",
          "type": "uint256"
        }
      ],
      "name": "transferFrom",
      "outputs": [],
      "stateMutability": "nonpayable",
      "type": "function"
    },
    {
      "inputs": [
        {
          "internalType": "address",
          "name": "newOwner",
          "type": "address"
        }
      ],
      "name": "transferOwnership",
      "outputs": [],
      "stateMutability": "nonpayable",
      "type": "function"
    }
  ],
  "bytecode": "0x60806040523480156200001157600080fd5b506040518060400160405280601a81526020017f56696e7461676541727469666163744d61726b6574706c6163650000000000008152506040518060400160405280600481526020017f564e465400000000000000000000000000000000000000000000000000000000815250816000908051906020019062000096929190620001a6565b508060019080519060200190620000af929190620001a6565b505050620000d2620000c6620000d860201b60201c565b620000e060201b60201c565b620002bb565b600033905090565b6000600b60009054906101000a900473ffffffffffffffffffffffffffffffffffffffff16905081600b60006101000a81548173ffffffffffffffffffffffffffffffffffffffff021916908373ffffffffffffffffffffffffffffffffffffffff1602179055508173ffffffffffffffffffffffffffffffffffffffff168173ffffffffffffffffffffffffffffffffffffffff167f8be0079c531659141344cd1fd0a4f28419497f9722a3daafe3b4186f6b6457e060405160405180910390a35050565b828054620001b49062000256565b90600052602060002090601f016020900481019282620001d8576000855562000224565b82601f10620001f357805160ff191683800117855562000224565b8280016001018555821562000224579182015b828111156200022357825182559160200191906001019062000206565b5b50905062000233919062000237565b5090565b5b808211156200025257600081600090555060010162000238565b5090565b600060028204905060018216806200026f57607f821691505b602082108114156200028657620002856200028c565b5b50919050565b7f4e487b7100000000000000000000000000000000000000000000000000000000600052602260045260246000fd5b61381280620002cb6000396000f3fe608060405234801561001057600080fd5b506004361061012c5760003560e01c806370a08231116100ad578063b88d4fde11610071578063b88d4fde14610343578063c87b56dd1461035f578063da2ed03e1461038f578063e985e9c5146103bf578063f2fde38b146103ef5761012c565b806370a08231146102b1578063715018a6146102e15780638da5cb5b146102eb57806395d89b4114610309578063a22cb465146103275761012c565b806323b872dd116100f457806323b872dd146101e95780632f745c591461020557806342842e0e146102355780634f6ccce7146102515780636352211e146102815761012c565b806301ffc9a71461013157806306fdde0314610161578063081812fc1461017f578063095ea7b3146101af57806318160ddd146101cb575b600080fd5b61014b60048036038101906101469190612689565b61040b565b6040516101589190612b60565b60405180910390f35b61016961041d565b6040516101769190612b7b565b60405180910390f35b61019960048036038101906101949190612720565b6104af565b6040516101a69190612af9565b60405180910390f35b6101c960048036038101906101c4919061264d565b610534565b005b6101d361064c565b6040516101e09190612e1d565b60405180910390f35b61020360048036038101906101fe9190612547565b610659565b005b61021f600480360381019061021a919061264d565b6106b9565b60405161022c9190612e1d565b60405180910390f35b61024f600480360381019061024a9190612547565b61075e565b005b61026b60048036038101906102669190612720565b61077e565b6040516102789190612e1d565b60405180910390f35b61029b60048036038101906102969190612720565b610815565b6040516102a89190612af9565b60405180910390f35b6102cb60048036038101906102c691906124e2565b6108c7565b6040516102d89190612e1d565b60405180910390f35b6102e961097f565b005b6102f3610a07565b6040516103009190612af9565b60405180910390f35b610311610a31565b60405161031e9190612b7b565b60405180910390f35b610341600480360381019061033c9190612611565b610ac3565b005b61035d60048036038101906103589190612596565b610ad9565b005b61037960048036038101906103749190612720565b610b3b565b6040516103869190612b7b565b60405180910390f35b6103a960048036038101906103a491906126db565b610b4d565b6040516103b69190612e1d565b60405180910390f35b6103d960048036038101906103d4919061250b565b610bc9565b6040516103e69190612b60565b60405180910390f35b610409600480360381019061040491906124e2565b610c5d565b005b600061041682610d55565b9050919050565b60606000805461042c90613042565b80601f016020809104026020016040519081016040528092919081815260200182805461045890613042565b80156104a55780601f1061047a576101008083540402835291602001916104a5565b820191906000526020600020905b81548152906001019060200180831161048857829003601f168201915b5050505050905090565b60006104ba82610dcf565b6104f9576040517f08c379a00000000000000000000000000000000000000000000000000000000081526004016104f090612d5d565b60405180910390fd5b6004600083815260200190815260200160002060009054906101000a900473ffffffffffffffffffffffffffffffffffffffff169050919050565b600061053f82610815565b90508073ffffffffffffffffffffffffffffffffffffffff168373ffffffffffffffffffffffffffffffffffffffff1614156105b0576040517f08c379a00000000000000000000000000000000000000000000000000000000081526004016105a790612dbd565b60405180910390fd5b8073ffffffffffffffffffffffffffffffffffffffff166105cf610e3b565b73ffffffffffffffffffffffffffffffffffffffff1614806105fe57506105fd816105f8610e3b565b610bc9565b5b61063d576040517f08c379a000000000000000000000000000000000000000000000000000000000815260040161063490612c9d565b60405180910390fd5b6106478383610e43565b505050565b6000600880549050905090565b61066a610664610e3b565b82610efc565b6106a9576040517f08c379a00000000000000000000000000000000000000000000000000000000081526004016106a090612ddd565b60405180910390fd5b6106b4838383610fda565b505050565b60006106c4836108c7565b8210610705576040517f08c379a00000000000000000000000000000000000000000000000000000000081526004016106fc90612b9d565b60405180910390fd5b600660008473ffffffffffffffffffffffffffffffffffffffff1673ffffffffffffffffffffffffffffffffffffffff168152602001908152602001600020600083815260200190815260200160002054905092915050565b61077983838360405180602001604052806000815250610ad9565b505050565b600061078861064c565b82106107c9576040517f08c379a00000000000000000000000000000000000000000000000000000000081526004016107c090612dfd565b60405180910390fd5b60088281548110610803577f4e487b7100000000000000000000000000000000000000000000000000000000600052603260045260246000fd5b90600052602060002001549050919050565b6000806002600084815260200190815260200160002060009054906101000a900473ffffffffffffffffffffffffffffffffffffffff169050600073ffffffffffffffffffffffffffffffffffffffff168173ffffffffffffffffffffffffffffffffffffffff1614156108be576040517f08c379a00000000000000000000000000000000000000000000000000000000081526004016108b590612cdd565b60405180910390fd5b80915050919050565b60008073ffffffffffffffffffffffffffffffffffffffff168273ffffffffffffffffffffffffffffffffffffffff161415610938576040517f08c379a000000000000000000000000000000000000000000000000000000000815260040161092f90612cbd565b60405180910390fd5b600360008373ffffffffffffffffffffffffffffffffffffffff1673ffffffffffffffffffffffffffffffffffffffff168152602001908152602001600020549050919050565b610987610e3b565b73ffffffffffffffffffffffffffffffffffffffff166109a5610a07565b73ffffffffffffffffffffffffffffffffffffffff16146109fb576040517f08c379a00000000000000000000000000000000000000000000000000000000081526004016109f290612d7d565b60405180910390fd5b610a056000611241565b565b6000600b60009054906101000a900473ffffffffffffffffffffffffffffffffffffffff16905090565b606060018054610a4090613042565b80601f0160208091040260200160405190810160405280929190818152602001828054610a6c90613042565b8015610ab95780601f10610a8e57610100808354040283529160200191610ab9565b820191906000526020600020905b815481529060010190602001808311610a9c57829003601f168201915b5050505050905090565b610ad5610ace610e3b565b8383611307565b5050565b610aea610ae4610e3b565b83610efc565b610b29576040517f08c379a0000000000000000000000000000000000000000000000000000000008152600401610b2090612ddd565b60405180910390fd5b610b3584848484611474565b50505050565b6060610b46826114d0565b9050919050565b6000610b59600c611622565b6000610b65600c611638565b9050610b713382611646565b610bbf8185858080601f016020809104026020016040519081016040528093929190818152602001838380828437600081840152601f19601f82011690508083019250505050505050611664565b8091505092915050565b6000600560008473ffffffffffffffffffffffffffffffffffffffff1673ffffffffffffffffffffffffffffffffffffffff16815260200190815260200160002060008373ffffffffffffffffffffffffffffffffffffffff1673ffffffffffffffffffffffffffffffffffffffff16815260200190815260200160002060009054906101000a900460ff16905092915050565b610c65610e3b565b73ffffffffffffffffffffffffffffffffffffffff16610c83610a07565b73ffffffffffffffffffffffffffffffffffffffff1614610cd9576040517f08c379a0000000000000000000000000000000000000000000000000000000008152600401610cd090612d7d565b60405180910390fd5b600073ffffffffffffffffffffffffffffffffffffffff168173ffffffffffffffffffffffffffffffffffffffff161415610d49576040517f08c379a0000000000000000000000000000000000000000000000000000000008152600401610d4090612bdd565b60405180910390fd5b610d5281611241565b50565b60007f780e9d63000000000000000000000000000000000000000000000000000000007bffffffffffffffffffffffffffffffffffffffffffffffffffffffff1916827bffffffffffffffffffffffffffffffffffffffffffffffffffffffff19161480610dc85750610dc7826116d8565b5b9050919050565b60008073ffffffffffffffffffffffffffffffffffffffff166002600084815260200190815260200160002060009054906101000a900473ffffffffffffffffffffffffffffffffffffffff1673ffffffffffffffffffffffffffffffffffffffff1614159050919050565b600033905090565b816004600083815260200190815260200160002060006101000a81548173ffffffffffffffffffffffffffffffffffffffff021916908373ffffffffffffffffffffffffffffffffffffffff160217905550808273ffffffffffffffffffffffffffffffffffffffff16610eb683610815565b73ffffffffffffffffffffffffffffffffffffffff167f8c5be1e5ebec7d5bd14f71427d1e84f3dd0314c0f7b2291e5b200ac8c7c3b92560405160405180910390a45050565b6000610f0782610dcf565b610f46576040517f08c379a0000000000000000000000000000000000000000000000000000000008152600401610f3d90612c7d565b60405180910390fd5b6000610f5183610815565b90508073ffffffffffffffffffffffffffffffffffffffff168473ffffffffffffffffffffffffffffffffffffffff161480610fc057508373ffffffffffffffffffffffffffffffffffffffff16610fa8846104af565b73ffffffffffffffffffffffffffffffffffffffff16145b80610fd15750610fd08185610bc9565b5b91505092915050565b8273ffffffffffffffffffffffffffffffffffffffff16610ffa82610815565b73ffffffffffffffffffffffffffffffffffffffff1614611050576040517f08c379a000000000000000000000000000000000000000000000000000000000815260040161104790612bfd565b60405180910390fd5b600073ffffffffffffffffffffffffffffffffffffffff168273ffffffffffffffffffffffffffffffffffffffff1614156110c0576040517f08c379a00000000000000000000000000000000000000000000000000000000081526004016110b790612c3d565b60405180910390fd5b6110cb8383836117ba565b6110d6600082610e43565b6001600360008573ffffffffffffffffffffffffffffffffffffffff1673ffffffffffffffffffffffffffffffffffffffff16815260200190815260200160002060008282546111269190612f58565b925050819055506001600360008473ffffffffffffffffffffffffffffffffffffffff1673ffffffffffffffffffffffffffffffffffffffff168152602001908152602001600020600082825461117d9190612ed1565b92505081905550816002600083815260200190815260200160002060006101000a81548173ffffffffffffffffffffffffffffffffffffffff021916908373ffffffffffffffffffffffffffffffffffffffff160217905550808273ffffffffffffffffffffffffffffffffffffffff168473ffffffffffffffffffffffffffffffffffffffff167fddf252ad1be2c89b69c2b068fc378daa952ba7f163c4a11628f55a4df523b3ef60405160405180910390a461123c8383836117ca565b505050565b6000600b60009054906101000a900473ffffffffffffffffffffffffffffffffffffffff16905081600b60006101000a81548173ffffffffffffffffffffffffffffffffffffffff021916908373ffffffffffffffffffffffffffffffffffffffff1602179055508173ffffffffffffffffffffffffffffffffffffffff168173ffffffffffffffffffffffffffffffffffffffff167f8be0079c531659141344cd1fd0a4f28419497f9722a3daafe3b4186f6b6457e060405160405180910390a35050565b8173ffffffffffffffffffffffffffffffffffffffff168373ffffffffffffffffffffffffffffffffffffffff161415611376576040517f08c379a000000000000000000000000000000000000000000000000000000000815260040161136d90612c5d565b60405180910390fd5b80600560008573ffffffffffffffffffffffffffffffffffffffff1673ffffffffffffffffffffffffffffffffffffffff16815260200190815260200160002060008473ffffffffffffffffffffffffffffffffffffffff1673ffffffffffffffffffffffffffffffffffffffff16815260200190815260200160002060006101000a81548160ff0219169083151502179055508173ffffffffffffffffffffffffffffffffffffffff168373ffffffffffffffffffffffffffffffffffffffff167f17307eab39ab6107e8899845ad3d59bd9653f200f220920489ca2b5937696c31836040516114679190612b60565b60405180910390a3505050565b61147f848484610fda565b61148b848484846117cf565b6114ca576040517f08c379a00000000000000000000000000000000000000000000000000000000081526004016114c190612bbd565b60405180910390fd5b50505050565b60606114db82610dcf565b61151a576040517f08c379a000000000000000000000000000000000000000000000000000000000815260040161151190612d3d565b60405180910390fd5b6000600a6000848152602001908152602001600020805461153a90613042565b80601f016020809104026020016040519081016040528092919081815260200182805461156690613042565b80156115b35780601f10611588576101008083540402835291602001916115b3565b820191906000526020600020905b81548152906001019060200180831161159657829003601f168201915b5050505050905060006115c4611966565b90506000815114156115da57819250505061161d565b60008251111561160f5780826040516020016115f7929190612ad5565b6040516020818303038152906040529250505061161d565b6116188461197d565b925050505b919050565b6001816000016000828254019250508190555050565b600081600001549050919050565b611660828260405180602001604052806000815250611a24565b5050565b61166d82610dcf565b6116ac576040517f08c379a00000000000000000000000000000000000000000000000000000000081526004016116a390612cfd565b60405180910390fd5b80600a600084815260200190815260200160002090805190602001906116d3929190612324565b505050565b60007f80ac58cd000000000000000000000000000000000000000000000000000000007bffffffffffffffffffffffffffffffffffffffffffffffffffffffff1916827bffffffffffffffffffffffffffffffffffffffffffffffffffffffff191614806117a357507f5b5e139f000000000000000000000000000000000000000000000000000000007bffffffffffffffffffffffffffffffffffffffffffffffffffffffff1916827bffffffffffffffffffffffffffffffffffffffffffffffffffffffff1916145b806117b357506117b282611a7f565b5b9050919050565b6117c5838383611ae9565b505050565b505050565b60006117f08473ffffffffffffffffffffffffffffffffffffffff16611bfd565b15611959578373ffffffffffffffffffffffffffffffffffffffff1663150b7a02611819610e3b565b8786866040518563ffffffff1660e01b815260040161183b9493929190612b14565b602060405180830381600087803b15801561185557600080fd5b505af192505050801561188657506040513d601f19601f8201168201806040525081019061188391906126b2565b60015b611909573d80600081146118b6576040519150601f19603f3d011682016040523d82523d6000602084013e6118bb565b606091505b50600081511415611901576040517f08c379a00000000000000000000000000000000000000000000000000000000081526004016118f890612bbd565b60405180910390fd5b805181602001fd5b63150b7a0260e01b7bffffffffffffffffffffffffffffffffffffffffffffffffffffffff1916817bffffffffffffffffffffffffffffffffffffffffffffffffffffffff19161491505061195e565b600190505b949350505050565b606060405180602001604052806000815250905090565b606061198882610dcf565b6119c7576040517f08c379a00000000000000000000000000000000000000000000000000000000081526004016119be90612d9d565b60405180910390fd5b60006119d1611966565b905060008151116119f15760405180602001604052806000815250611a1c565b806119fb84611c20565b604051602001611a0c929190612ad5565b6040516020818303038152906040525b915050919050565b611a2e8383611dcd565b611a3b60008484846117cf565b611a7a576040517f08c379a0000000000000000000000000000000000000000000000000000000008152600401611a7190612bbd565b60405180910390fd5b505050565b60007f01ffc9a7000000000000000000000000000000000000000000000000000000007bffffffffffffffffffffffffffffffffffffffffffffffffffffffff1916827bffffffffffffffffffffffffffffffffffffffffffffffffffffffff1916149050919050565b611af4838383611fa7565b600073ffffffffffffffffffffffffffffffffffffffff168373ffffffffffffffffffffffffffffffffffffffff161415611b3757611b3281611fac565b611b76565b8173ffffffffffffffffffffffffffffffffffffffff168373ffffffffffffffffffffffffffffffffffffffff1614611b7557611b748382611ff5565b5b5b600073ffffffffffffffffffffffffffffffffffffffff168273ffffffffffffffffffffffffffffffffffffffff161415611bb957611bb481612162565b611bf8565b8273ffffffffffffffffffffffffffffffffffffffff168273ffffffffffffffffffffffffffffffffffffffff1614611bf757611bf682826122a5565b5b5b505050565b6000808273ffffffffffffffffffffffffffffffffffffffff163b119050919050565b60606000821415611c68576040518060400160405280600181526020017f30000000000000000000000000000000000000000000000000000000000000008152509050611dc8565b600082905060005b60008214611c9a578080611c83906130a5565b915050600a82611c939190612f27565b9150611c70565b60008167ffffffffffffffff811115611cdc577f4e487b7100000000000000000000000000000000000000000000000000000000600052604160045260246000fd5b6040519080825280601f01601f191660200182016040528015611d0e5781602001600182028036833780820191505090505b5090505b60008514611dc157600182611d279190612f58565b9150600a85611d3691906130ee565b6030611d429190612ed1565b60f81b818381518110611d7e577f4e487b7100000000000000000000000000000000000000000000000000000000600052603260045260246000fd5b60200101907effffffffffffffffffffffffffffffffffffffffffffffffffffffffffffff1916908160001a905350600a85611dba9190612f27565b9450611d12565b8093505050505b919050565b600073ffffffffffffffffffffffffffffffffffffffff168273ffffffffffffffffffffffffffffffffffffffff161415611e3d576040517f08c379a0000000000000000000000000000000000000000000000000000000008152600401611e3490612d1d565b60405180910390fd5b611e4681610dcf565b15611e86576040517f08c379a0000000000000000000000000000000000000000000000000000000008152600401611e7d90612c1d565b60405180910390fd5b611e92600083836117ba565b6001600360008473ffffffffffffffffffffffffffffffffffffffff1673ffffffffffffffffffffffffffffffffffffffff1681526020019081526020016000206000828254611ee29190612ed1565b92505081905550816002600083815260200190815260200160002060006101000a81548173ffffffffffffffffffffffffffffffffffffffff021916908373ffffffffffffffffffffffffffffffffffffffff160217905550808273ffffffffffffffffffffffffffffffffffffffff16600073ffffffffffffffffffffffffffffffffffffffff167fddf252ad1be2c89b69c2b068fc378daa952ba7f163c4a11628f55a4df523b3ef60405160405180910390a4611fa3600083836117ca565b5050565b505050565b6008805490506009600083815260200190815260200160002081905550600881908060018154018082558091505060019003906000526020600020016000909190919091505550565b60006001612002846108c7565b61200c9190612f58565b90506000600760008481526020019081526020016000205490508181146120f1576000600660008673ffffffffffffffffffffffffffffffffffffffff1673ffffffffffffffffffffffffffffffffffffffff168152602001908152602001600020600084815260200190815260200160002054905080600660008773ffffffffffffffffffffffffffffffffffffffff1673ffffffffffffffffffffffffffffffffffffffff168152602001908152602001600020600084815260200190815260200160002081905550816007600083815260200190815260200160002081905550505b6007600084815260200190815260200160002060009055600660008573ffffffffffffffffffffffffffffffffffffffff1673ffffffffffffffffffffffffffffffffffffffff16815260200190815260200160002060008381526020019081526020016000206000905550505050565b600060016008805490506121769190612f58565b90506000600960008481526020019081526020016000205490506000600883815481106121cc577f4e487b7100000000000000000000000000000000000000000000000000000000600052603260045260246000fd5b906000526020600020015490508060088381548110612214577f4e487b7100000000000000000000000000000000000000000000000000000000600052603260045260246000fd5b906000526020600020018190555081600960008381526020019081526020016000208190555060096000858152602001908152602001600020600090556008805480612289577f4e487b7100000000000000000000000000000000000000000000000000000000600052603160045260246000fd5b6001900381819060005260206000200160009055905550505050565b60006122b0836108c7565b905081600660008573ffffffffffffffffffffffffffffffffffffffff1673ffffffffffffffffffffffffffffffffffffffff168152602001908152602001600020600083815260200190815260200160002081905550806007600084815260200190815260200160002081905550505050565b82805461233090613042565b90600052602060002090601f0160209004810192826123525760008555612399565b82601f1061236b57805160ff1916838001178555612399565b82800160010185558215612399579182015b8281111561239857825182559160200191906001019061237d565b5b5090506123a691906123aa565b5090565b5b808211156123c35760008160009055506001016123ab565b5090565b60006123da6123d584612e5d565b612e38565b9050828152602081018484840111156123f257600080fd5b6123fd848285613000565b509392505050565b60008135905061241481613780565b92915050565b60008135905061242981613797565b92915050565b60008135905061243e816137ae565b92915050565b600081519050612453816137ae565b92915050565b600082601f83011261246a57600080fd5b813561247a8482602086016123c7565b91505092915050565b60008083601f84011261249557600080fd5b8235905067ffffffffffffffff8111156124ae57600080fd5b6020830191508360018202830111156124c657600080fd5b9250929050565b6000813590506124dc816137c5565b92915050565b6000602082840312156124f457600080fd5b600061250284828501612405565b91505092915050565b6000806040838503121561251e57600080fd5b600061252c85828601612405565b925050602061253d85828601612405565b9150509250929050565b60008060006060848603121561255c57600080fd5b600061256a86828701612405565b935050602061257b86828701612405565b925050604061258c868287016124cd565b9150509250925092565b600080600080608085870312156125ac57600080fd5b60006125ba87828801612405565b94505060206125cb87828801612405565b93505060406125dc878288016124cd565b925050606085013567ffffffffffffffff8111156125f957600080fd5b61260587828801612459565b91505092959194509250565b6000806040838503121561262457600080fd5b600061263285828601612405565b92505060206126438582860161241a565b9150509250929050565b6000806040838503121561266057600080fd5b600061266e85828601612405565b925050602061267f858286016124cd565b9150509250929050565b60006020828403121561269b57600080fd5b60006126a98482850161242f565b91505092915050565b6000602082840312156126c457600080fd5b60006126d284828501612444565b91505092915050565b600080602083850312156126ee57600080fd5b600083013567ffffffffffffffff81111561270857600080fd5b61271485828601612483565b92509250509250929050565b60006020828403121561273257600080fd5b6000612740848285016124cd565b91505092915050565b61275281612f8c565b82525050565b61276181612f9e565b82525050565b600061277282612e8e565b61277c8185612ea4565b935061278c81856020860161300f565b612795816131db565b840191505092915050565b60006127ab82612e99565b6127b58185612eb5565b93506127c581856020860161300f565b6127ce816131db565b840191505092915050565b60006127e482612e99565b6127ee8185612ec6565b93506127fe81856020860161300f565b80840191505092915050565b6000612817602b83612eb5565b9150612822826131ec565b604082019050919050565b600061283a603283612eb5565b91506128458261323b565b604082019050919050565b600061285d602683612eb5565b91506128688261328a565b604082019050919050565b6000612880602583612eb5565b915061288b826132d9565b604082019050919050565b60006128a3601c83612eb5565b91506128ae82613328565b602082019050919050565b60006128c6602483612eb5565b91506128d182613351565b604082019050919050565b60006128e9601983612eb5565b91506128f4826133a0565b602082019050919050565b600061290c602c83612eb5565b9150612917826133c9565b604082019050919050565b600061292f603883612eb5565b915061293a82613418565b604082019050919050565b6000612952602a83612eb5565b915061295d82613467565b604082019050919050565b6000612975602983612eb5565b9150612980826134b6565b604082019050919050565b6000612998602e83612eb5565b91506129a382613505565b604082019050919050565b60006129bb602083612eb5565b91506129c682613554565b602082019050919050565b60006129de603183612eb5565b91506129e98261357d565b604082019050919050565b6000612a01602c83612eb5565b9150612a0c826135cc565b604082019050919050565b6000612a24602083612eb5565b9150612a2f8261361b565b602082019050919050565b6000612a47602f83612eb5565b9150612a5282613644565b604082019050919050565b6000612a6a602183612eb5565b9150612a7582613693565b604082019050919050565b6000612a8d603183612eb5565b9150612a98826136e2565b604082019050919050565b6000612ab0602c83612eb5565b9150612abb82613731565b604082019050919050565b612acf81612ff6565b82525050565b6000612ae182856127d9565b9150612aed82846127d9565b91508190509392505050565b6000602082019050612b0e6000830184612749565b92915050565b6000608082019050612b296000830187612749565b612b366020830186612749565b612b436040830185612ac6565b8181036060830152612b558184612767565b905095945050505050565b6000602082019050612b756000830184612758565b92915050565b60006020820190508181036000830152612b9581846127a0565b905092915050565b60006020820190508181036000830152612bb68161280a565b9050919050565b60006020820190508181036000830152612bd68161282d565b9050919050565b60006020820190508181036000830152612bf681612850565b9050919050565b60006020820190508181036000830152612c1681612873565b9050919050565b60006020820190508181036000830152612c3681612896565b9050919050565b60006020820190508181036000830152612c56816128b9565b9050919050565b60006020820190508181036000830152612c76816128dc565b9050919050565b60006020820190508181036000830152612c96816128ff565b9050919050565b60006020820190508181036000830152612cb681612922565b9050919050565b60006020820190508181036000830152612cd681612945565b9050919050565b60006020820190508181036000830152612cf681612968565b9050919050565b60006020820190508181036000830152612d168161298b565b9050919050565b60006020820190508181036000830152612d36816129ae565b9050919050565b60006020820190508181036000830152612d56816129d1565b9050919050565b60006020820190508181036000830152612d76816129f4565b9050919050565b60006020820190508181036000830152612d9681612a17565b9050919050565b60006020820190508181036000830152612db681612a3a565b9050919050565b60006020820190508181036000830152612dd681612a5d565b9050919050565b60006020820190508181036000830152612df681612a80565b9050919050565b60006020820190508181036000830152612e1681612aa3565b9050919050565b6000602082019050612e326000830184612ac6565b92915050565b6000612e42612e53565b9050612e4e8282613074565b919050565b6000604051905090565b600067ffffffffffffffff821115612e7857612e776131ac565b5b612e81826131db565b9050602081019050919050565b600081519050919050565b600081519050919050565b600082825260208201905092915050565b600082825260208201905092915050565b600081905092915050565b6000612edc82612ff6565b9150612ee783612ff6565b9250827fffffffffffffffffffffffffffffffffffffffffffffffffffffffffffffffff03821115612f1c57612f1b61311f565b5b828201905092915050565b6000612f3282612ff6565b9150612f3d83612ff6565b925082612f4d57612f4c61314e565b5b828204905092915050565b6000612f6382612ff6565b9150612f6e83612ff6565b925082821015612f8157612f8061311f565b5b828203905092915050565b6000612f9782612fd6565b9050919050565b60008115159050919050565b60007fffffffff0000000000000000000000000000000000000000000000000000000082169050919050565b600073ffffffffffffffffffffffffffffffffffffffff82169050919050565b6000819050919050565b82818337600083830152505050565b60005b8381101561302d578082015181840152602081019050613012565b8381111561303c576000848401525b50505050565b6000600282049050600182168061305a57607f821691505b6020821081141561306e5761306d61317d565b5b50919050565b61307d826131db565b810181811067ffffffffffffffff8211171561309c5761309b6131ac565b5b80604052505050565b60006130b082612ff6565b91507fffffffffffffffffffffffffffffffffffffffffffffffffffffffffffffffff8214156130e3576130e261311f565b5b600182019050919050565b60006130f982612ff6565b915061310483612ff6565b9250826131145761311361314e565b5b828206905092915050565b7f4e487b7100000000000000000000000000000000000000000000000000000000600052601160045260246000fd5b7f4e487b7100000000000000000000000000000000000000000000000000000000600052601260045260246000fd5b7f4e487b7100000000000000000000000000000000000000000000000000000000600052602260045260246000fd5b7f4e487b7100000000000000000000000000000000000000000000000000000000600052604160045260246000fd5b6000601f19601f8301169050919050565b7f455243373231456e756d657261626c653a206f776e657220696e646578206f7560008201527f74206f6620626f756e6473000000000000000000000000000000000000000000602082015250565b7f4552433732313a207472616e7366657220746f206e6f6e20455243373231526560008201527f63656976657220696d706c656d656e7465720000000000000000000000000000602082015250565b7f4f776e61626c653a206e6577206f776e657220697320746865207a65726f206160008201527f6464726573730000000000000000000000000000000000000000000000000000602082015250565b7f4552433732313a207472616e736665722066726f6d20696e636f72726563742060008201527f6f776e6572000000000000000000000000000000000000000000000000000000602082015250565b7f4552433732313a20746f6b656e20616c7265616479206d696e74656400000000600082015250565b7f4552433732313a207472616e7366657220746f20746865207a65726f2061646460008201527f7265737300000000000000000000000000000000000000000000000000000000602082015250565b7f4552433732313a20617070726f766520746f2063616c6c657200000000000000600082015250565b7f4552433732313a206f70657261746f7220717565727920666f72206e6f6e657860008201527f697374656e7420746f6b656e0000000000000000000000000000000000000000602082015250565b7f4552433732313a20617070726f76652063616c6c6572206973206e6f74206f7760008201527f6e6572206e6f7220617070726f76656420666f7220616c6c0000000000000000602082015250565b7f4552433732313a2062616c616e636520717565727920666f7220746865207a6560008201527f726f206164647265737300000000000000000000000000000000000000000000602082015250565b7f4552433732313a206f776e657220717565727920666f72206e6f6e657869737460008201527f656e7420746f6b656e0000000000000000000000000000000000000000000000602082015250565b7f45524337323155524953746f726167653a2055524920736574206f66206e6f6e60008201527f6578697374656e7420746f6b656e000000000000000000000000000000000000602082015250565b7f4552433732313a206d696e7420746f20746865207a65726f2061646472657373600082015250565b7f45524337323155524953746f726167653a2055524920717565727920666f722060008201527f6e6f6e6578697374656e7420746f6b656e000000000000000000000000000000602082015250565b7f4552433732313a20617070726f76656420717565727920666f72206e6f6e657860008201527f697374656e7420746f6b656e0000000000000000000000000000000000000000602082015250565b7f4f776e61626c653a2063616c6c6572206973206e6f7420746865206f776e6572600082015250565b7f4552433732314d657461646174613a2055524920717565727920666f72206e6f60008201527f6e6578697374656e7420746f6b656e0000000000000000000000000000000000602082015250565b7f4552433732313a20617070726f76616c20746f2063757272656e74206f776e6560008201527f7200000000000000000000000000000000000000000000000000000000000000602082015250565b7f4552433732313a207472616e736665722063616c6c6572206973206e6f74206f60008201527f776e6572206e6f7220617070726f766564000000000000000000000000000000602082015250565b7f455243373231456e756d657261626c653a20676c6f62616c20696e646578206f60008201527f7574206f6620626f756e64730000000000000000000000000000000000000000602082015250565b61378981612f8c565b811461379457600080fd5b50565b6137a081612f9e565b81146137ab57600080fd5b50565b6137b781612faa565b81146137c257600080fd5b50565b6137ce81612ff6565b81146137d957600080fd5b5056fea2646970667358221220f577703c6cccf60b397ce821c15a4dce1b31a57b65619fa4b20672792bdfe2e964736f6c63430008040033",
  "linkReferences": {},
  "deployedLinkReferences": {}
}