{
  "_format": "hh-sol-artifact-1",
  "contractName": "NFTMarketplace",
  "sourceName": "contracts/NFTMarketplace.sol",
  "abi": [
    {
      "inputs": [
        {
          "internalType": "uint256",
          "name": "_Id",
          "type": "uint256"
        }
      ],
      "name": "buyNFT",
      "outputs": [],
      "stateMutability": "payable",
      "type": "function"
    },
    {
      "inputs": [
        {
          "internalType": "uint256",
          "name": "_Id",
          "type": "uint256"
        }
      ],
      "name": "cancel",
      "outputs": [],
      "stateMutability": "nonpayable",
      "type": "function"
    },
    {
      "inputs": [],
      "name": "getListinglength",
      "outputs": [
        {
          "internalType": "uint256",
          "name": "",
          "type": "uint256"
        }
      ],
      "stateMutability": "view",
      "type": "function"
    },
    {
      "inputs": [
        {
          "internalType": "uint256",
          "name": "_Id",
          "type": "uint256"
        }
      ],
      "name": "getNFTListing",
      "outputs": [
        {
          "components": [
            {
              "internalType": "contract ERC721",
              "name": "nft",
              "type": "address"
            },
            {
              "internalType": "uint256",
              "name": "tokenId",
              "type": "uint256"
            },
            {
              "internalType": "uint256",
              "name": "price",
              "type": "uint256"
            },
            {
              "internalType": "address",
              "name": "seller",
              "type": "address"
            },
            {
              "internalType": "bool",
              "name": "forSale",
              "type": "bool"
            }
          ],
          "internalType": "struct NFTMarketplace.NFTListing",
          "name": "",
          "type": "tuple"
        }
      ],
      "stateMutability": "view",
      "type": "function"
    },
    {
      "inputs": [
        {
          "internalType": "contract ERC721",
          "name": "_nft",
          "type": "address"
        },
        {
          "internalType": "uint256",
          "name": "_tokenId",
          "type": "uint256"
        },
        {
          "internalType": "uint256",
          "name": "_price",
          "type": "uint256"
        }
      ],
      "name": "listNFT",
      "outputs": [],
      "stateMutability": "nonpayable",
      "type": "function"
    },
    {
      "inputs": [
        {
          "internalType": "uint256",
          "name": "",
          "type": "uint256"
        }
      ],
      "name": "listings",
      "outputs": [
        {
          "internalType": "contract ERC721",
          "name": "nft",
          "type": "address"
        },
        {
          "internalType": "uint256",
          "name": "tokenId",
          "type": "uint256"
        },
        {
          "internalType": "uint256",
          "name": "price",
          "type": "uint256"
        },
        {
          "internalType": "address",
          "name": "seller",
          "type": "address"
        },
        {
          "internalType": "bool",
          "name": "forSale",
          "type": "bool"
        }
      ],
      "stateMutability": "view",
      "type": "function"
    },
    {
      "inputs": [
        {
          "internalType": "uint256",
          "name": "_Id",
          "type": "uint256"
        }
      ],
      "name": "sell",
      "outputs": [],
      "stateMutability": "nonpayable",
      "type": "function"
    }
  ],
  "bytecode": "0x608060405234801561001057600080fd5b50611251806100206000396000f3fe6080604052600436106100705760003560e01c8063ad05f1b41161004e578063ad05f1b4146100f7578063c85d526214610120578063de74e57b1461014b578063e4849b321461018c57610070565b80630ea59c4b1461007557806340e58ee5146100b257806351ed8288146100db575b600080fd5b34801561008157600080fd5b5061009c60048036038101906100979190610c4a565b6101b5565b6040516100a99190610da9565b60405180910390f35b3480156100be57600080fd5b506100d960048036038101906100d49190610c4a565b6102bd565b005b6100f560048036038101906100f09190610c4a565b610476565b005b34801561010357600080fd5b5061011e60048036038101906101199190610e02565b610782565b005b34801561012c57600080fd5b5061013561090b565b6040516101429190610e64565b60405180910390f35b34801561015757600080fd5b50610172600480360381019061016d9190610c4a565b61091c565b604051610183959493929190610eac565b60405180910390f35b34801561019857600080fd5b506101b360048036038101906101ae9190610c4a565b61099f565b005b6101bd610bb2565b600160008381526020019081526020016000206040518060a00160405290816000820160009054906101000a900473ffffffffffffffffffffffffffffffffffffffff1673ffffffffffffffffffffffffffffffffffffffff1673ffffffffffffffffffffffffffffffffffffffff16815260200160018201548152602001600282015481526020016003820160009054906101000a900473ffffffffffffffffffffffffffffffffffffffff1673ffffffffffffffffffffffffffffffffffffffff1673ffffffffffffffffffffffffffffffffffffffff1681526020016003820160149054906101000a900460ff1615151515815250509050919050565b806001600082815260200190815260200160002060030160009054906101000a900473ffffffffffffffffffffffffffffffffffffffff1673ffffffffffffffffffffffffffffffffffffffff163373ffffffffffffffffffffffffffffffffffffffff161461032c57600080fd5b60006001600084815260200190815260200160002090503373ffffffffffffffffffffffffffffffffffffffff168160030160009054906101000a900473ffffffffffffffffffffffffffffffffffffffff1673ffffffffffffffffffffffffffffffffffffffff161461039f57600080fd5b600115158160030160149054906101000a900460ff161515146103c157600080fd5b8060000160009054906101000a900473ffffffffffffffffffffffffffffffffffffffff1673ffffffffffffffffffffffffffffffffffffffff166323b872dd3033866040518463ffffffff1660e01b815260040161042293929190610eff565b600060405180830381600087803b15801561043c57600080fd5b505af1158015610450573d6000803e3d6000fd5b5050505060008160030160146101000a81548160ff021916908315150217905550505050565b60006001600083815260200190815260200160002090506000821180156104a657506104a26000610b8e565b8211155b6104e5576040517f08c379a00000000000000000000000000000000000000000000000000000000081526004016104dc90610f93565b60405180910390fd5b806002015434101561052c576040517f08c379a000000000000000000000000000000000000000000000000000000000815260040161052390611025565b60405180910390fd5b600015158160030160149054906101000a900460ff1615151415610585576040517f08c379a000000000000000000000000000000000000000000000000000000000815260040161057c90611091565b60405180910390fd5b3373ffffffffffffffffffffffffffffffffffffffff168160030160009054906101000a900473ffffffffffffffffffffffffffffffffffffffff1673ffffffffffffffffffffffffffffffffffffffff161415610618576040517f08c379a000000000000000000000000000000000000000000000000000000000815260040161060f906110fd565b60405180910390fd5b8060030160009054906101000a900473ffffffffffffffffffffffffffffffffffffffff1673ffffffffffffffffffffffffffffffffffffffff166108fc82600201549081150290604051600060405180830381858888f19350505050158015610686573d6000803e3d6000fd5b508060000160009054906101000a900473ffffffffffffffffffffffffffffffffffffffff1673ffffffffffffffffffffffffffffffffffffffff166323b872dd303384600101546040518463ffffffff1660e01b81526004016106ec93929190610eff565b600060405180830381600087803b15801561070657600080fd5b505af115801561071a573d6000803e3d6000fd5b50505050338160030160006101000a81548173ffffffffffffffffffffffffffffffffffffffff021916908373ffffffffffffffffffffffffffffffffffffffff16021790555060008160030160146101000a81548160ff0219169083151502179055505050565b600081116107c5576040517f08c379a00000000000000000000000000000000000000000000000000000000081526004016107bc9061118f565b60405180910390fd5b6107cf6000610b9c565b6040518060a001604052808473ffffffffffffffffffffffffffffffffffffffff1681526020018381526020018281526020013373ffffffffffffffffffffffffffffffffffffffff16815260200160001515815250600160006108336000610b8e565b815260200190815260200160002060008201518160000160006101000a81548173ffffffffffffffffffffffffffffffffffffffff021916908373ffffffffffffffffffffffffffffffffffffffff160217905550602082015181600101556040820151816002015560608201518160030160006101000a81548173ffffffffffffffffffffffffffffffffffffffff021916908373ffffffffffffffffffffffffffffffffffffffff16021790555060808201518160030160146101000a81548160ff021916908315150217905550905050505050565b60006109176000610b8e565b905090565b60016020528060005260406000206000915090508060000160009054906101000a900473ffffffffffffffffffffffffffffffffffffffff16908060010154908060020154908060030160009054906101000a900473ffffffffffffffffffffffffffffffffffffffff16908060030160149054906101000a900460ff16905085565b806001600082815260200190815260200160002060030160009054906101000a900473ffffffffffffffffffffffffffffffffffffffff1673ffffffffffffffffffffffffffffffffffffffff163373ffffffffffffffffffffffffffffffffffffffff1614610a0e57600080fd5b60006001600084815260200190815260200160002090503373ffffffffffffffffffffffffffffffffffffffff168160030160009054906101000a900473ffffffffffffffffffffffffffffffffffffffff1673ffffffffffffffffffffffffffffffffffffffff1614610ab7576040517f08c379a0000000000000000000000000000000000000000000000000000000008152600401610aae906111fb565b60405180910390fd5b600015158160030160149054906101000a900460ff16151514610ad957600080fd5b8060000160009054906101000a900473ffffffffffffffffffffffffffffffffffffffff1673ffffffffffffffffffffffffffffffffffffffff166323b872dd3330866040518463ffffffff1660e01b8152600401610b3a93929190610eff565b600060405180830381600087803b158015610b5457600080fd5b505af1158015610b68573d6000803e3d6000fd5b5050505060018160030160146101000a81548160ff021916908315150217905550505050565b600081600001549050919050565b6001816000016000828254019250508190555050565b6040518060a00160405280600073ffffffffffffffffffffffffffffffffffffffff1681526020016000815260200160008152602001600073ffffffffffffffffffffffffffffffffffffffff1681526020016000151581525090565b600080fd5b6000819050919050565b610c2781610c14565b8114610c3257600080fd5b50565b600081359050610c4481610c1e565b92915050565b600060208284031215610c6057610c5f610c0f565b5b6000610c6e84828501610c35565b91505092915050565b600073ffffffffffffffffffffffffffffffffffffffff82169050919050565b6000819050919050565b6000610cbc610cb7610cb284610c77565b610c97565b610c77565b9050919050565b6000610cce82610ca1565b9050919050565b6000610ce082610cc3565b9050919050565b610cf081610cd5565b82525050565b610cff81610c14565b82525050565b6000610d1082610c77565b9050919050565b610d2081610d05565b82525050565b60008115159050919050565b610d3b81610d26565b82525050565b60a082016000820151610d576000850182610ce7565b506020820151610d6a6020850182610cf6565b506040820151610d7d6040850182610cf6565b506060820151610d906060850182610d17565b506080820151610da36080850182610d32565b50505050565b600060a082019050610dbe6000830184610d41565b92915050565b6000610dcf82610d05565b9050919050565b610ddf81610dc4565b8114610dea57600080fd5b50565b600081359050610dfc81610dd6565b92915050565b600080600060608486031215610e1b57610e1a610c0f565b5b6000610e2986828701610ded565b9350506020610e3a86828701610c35565b9250506040610e4b86828701610c35565b9150509250925092565b610e5e81610c14565b82525050565b6000602082019050610e796000830184610e55565b92915050565b610e8881610cd5565b82525050565b610e9781610d05565b82525050565b610ea681610d26565b82525050565b600060a082019050610ec16000830188610e7f565b610ece6020830187610e55565b610edb6040830186610e55565b610ee86060830185610e8e565b610ef56080830184610e9d565b9695505050505050565b6000606082019050610f146000830186610e8e565b610f216020830185610e8e565b610f2e6040830184610e55565b949350505050565b600082825260208201905092915050565b7f6974656d20646f65736e27742065786973740000000000000000000000000000600082015250565b6000610f7d601283610f36565b9150610f8882610f47565b602082019050919050565b60006020820190508181036000830152610fac81610f70565b9050919050565b7f6e6f7420656e6f7567682062616c616e636520666f722074686973207472616e60008201527f73616374696f6e00000000000000000000000000000000000000000000000000602082015250565b600061100f602783610f36565b915061101a82610fb3565b604082019050919050565b6000602082019050818103600083015261103e81611002565b9050919050565b7f6974656d206973206e6f7420666f722073656c6c000000000000000000000000600082015250565b600061107b601483610f36565b915061108682611045565b602082019050919050565b600060208201905081810360008301526110aa8161106e565b9050919050565b7f596f752063616e6e6f742062757920796f7572206f776e206e66740000000000600082015250565b60006110e7601b83610f36565b91506110f2826110b1565b602082019050919050565b60006020820190508181036000830152611116816110da565b9050919050565b7f4e46544d61726b65743a207072696365206d757374206265206772656174657260008201527f207468616e203000000000000000000000000000000000000000000000000000602082015250565b6000611179602783610f36565b91506111848261111d565b604082019050919050565b600060208201905081810360008301526111a88161116c565b9050919050565b7f4f6e6c7920746865206e6674206f776e65722063616e2073656c6c206e667400600082015250565b60006111e5601f83610f36565b91506111f0826111af565b602082019050919050565b60006020820190508181036000830152611214816111d8565b905091905056fea2646970667358221220d52b0da674ff091a8fb7113dad82acc7046fdfdd4301517bbf37c68f956ad28e64736f6c63430008090033",
  "linkReferences": {},
  "deployedLinkReferences": {}
}