{
  "_format": "hh-sol-artifact-1",
  "contractName": "NFTMarketplace",
  "sourceName": "contracts/NFTMarketplace.sol",
  "abi": [
    {
      "inputs": [
        {
          "internalType": "uint256",
          "name": "",
          "type": "uint256"
        }
      ],
      "name": "_listings",
      "outputs": [
        {
          "internalType": "contract IERC721",
          "name": "nft",
          "type": "address"
        },
        {
          "internalType": "uint256",
          "name": "price",
          "type": "uint256"
        },
        {
          "internalType": "address",
          "name": "seller",
          "type": "address"
        },
        {
          "internalType": "bool",
          "name": "sold",
          "type": "bool"
        },
        {
          "internalType": "uint256",
          "name": "tokenId",
          "type": "uint256"
        }
      ],
      "stateMutability": "view",
      "type": "function"
    },
    {
      "inputs": [
        {
          "internalType": "uint256",
          "name": "_tokenId",
          "type": "uint256"
        }
      ],
      "name": "buyNFT",
      "outputs": [],
      "stateMutability": "payable",
      "type": "function"
    },
    {
      "inputs": [],
      "name": "getListinglength",
      "outputs": [
        {
          "internalType": "uint256",
          "name": "",
          "type": "uint256"
        }
      ],
      "stateMutability": "view",
      "type": "function"
    },
    {
      "inputs": [
        {
          "internalType": "uint256",
          "name": "_tokenId",
          "type": "uint256"
        }
      ],
      "name": "getNFTListing",
      "outputs": [
        {
          "components": [
            {
              "internalType": "contract IERC721",
              "name": "nft",
              "type": "address"
            },
            {
              "internalType": "uint256",
              "name": "price",
              "type": "uint256"
            },
            {
              "internalType": "address",
              "name": "seller",
              "type": "address"
            },
            {
              "internalType": "bool",
              "name": "sold",
              "type": "bool"
            },
            {
              "internalType": "uint256",
              "name": "tokenId",
              "type": "uint256"
            }
          ],
          "internalType": "struct NFTMarketplace.NFTListing",
          "name": "",
          "type": "tuple"
        }
      ],
      "stateMutability": "view",
      "type": "function"
    },
    {
      "inputs": [
        {
          "internalType": "contract IERC721",
          "name": "_nft",
          "type": "address"
        },
        {
          "internalType": "uint256",
          "name": "_price",
          "type": "uint256"
        },
        {
          "internalType": "uint256",
          "name": "_tokenId",
          "type": "uint256"
        }
      ],
      "name": "listNFT",
      "outputs": [],
      "stateMutability": "nonpayable",
      "type": "function"
    },
    {
      "inputs": [],
      "name": "listingLength",
      "outputs": [
        {
          "internalType": "uint256",
          "name": "",
          "type": "uint256"
        }
      ],
      "stateMutability": "view",
      "type": "function"
    }
  ],
  "bytecode": "0x60806040526000805534801561001457600080fd5b50610d0a806100246000396000f3fe6080604052600436106100555760003560e01c80630ea59c4b1461005a57806351ed828814610097578063ad05f1b4146100b3578063c85d5262146100dc578063df76dbc914610107578063ee52a62514610148575b600080fd5b34801561006657600080fd5b50610081600480360381019061007c91906107da565b610173565b60405161008e9190610a79565b60405180910390f35b6100b160048036038101906100ac91906107da565b61027b565b005b3480156100bf57600080fd5b506100da60048036038101906100d5919061078b565b610475565b005b3480156100e857600080fd5b506100f1610672565b6040516100fe9190610a94565b60405180910390f35b34801561011357600080fd5b5061012e600480360381019061012991906107da565b61067b565b60405161013f9594939291906109a6565b60405180910390f35b34801561015457600080fd5b5061015d6106fe565b60405161016a9190610a94565b60405180910390f35b61017b610704565b600160008381526020019081526020016000206040518060a00160405290816000820160009054906101000a900473ffffffffffffffffffffffffffffffffffffffff1673ffffffffffffffffffffffffffffffffffffffff1673ffffffffffffffffffffffffffffffffffffffff168152602001600182015481526020016002820160009054906101000a900473ffffffffffffffffffffffffffffffffffffffff1673ffffffffffffffffffffffffffffffffffffffff1673ffffffffffffffffffffffffffffffffffffffff1681526020016002820160149054906101000a900460ff161515151581526020016003820154815250509050919050565b60006001600083815260200190815260200160002090508060020160149054906101000a900460ff16156102e4576040517f08c379a00000000000000000000000000000000000000000000000000000000081526004016102db90610a39565b60405180910390fd5b600081600101541161032b576040517f08c379a000000000000000000000000000000000000000000000000000000000815260040161032290610a19565b60405180910390fd5b8060010154341015610372576040517f08c379a000000000000000000000000000000000000000000000000000000000815260040161036990610a59565b60405180910390fd5b8060020160009054906101000a900473ffffffffffffffffffffffffffffffffffffffff1673ffffffffffffffffffffffffffffffffffffffff166108fc82600101549081150290604051600060405180830381858888f193505050501580156103e0573d6000803e3d6000fd5b5060018160020160146101000a81548160ff0219169083151502179055503073ffffffffffffffffffffffffffffffffffffffff166323b872dd303384600301546040518463ffffffff1660e01b815260040161043f9392919061096f565b600060405180830381600087803b15801561045957600080fd5b505af115801561046d573d6000803e3d6000fd5b505050505050565b600082116104b8576040517f08c379a00000000000000000000000000000000000000000000000000000000081526004016104af906109f9565b60405180910390fd5b6000808154809291906104ca90610b3e565b91905055508273ffffffffffffffffffffffffffffffffffffffff166323b872dd3330846040518463ffffffff1660e01b815260040161050c9392919061096f565b600060405180830381600087803b15801561052657600080fd5b505af115801561053a573d6000803e3d6000fd5b505050506040518060a001604052808473ffffffffffffffffffffffffffffffffffffffff1681526020018381526020013373ffffffffffffffffffffffffffffffffffffffff16815260200160001515815260200182815250600160008054815260200190815260200160002060008201518160000160006101000a81548173ffffffffffffffffffffffffffffffffffffffff021916908373ffffffffffffffffffffffffffffffffffffffff1602179055506020820151816001015560408201518160020160006101000a81548173ffffffffffffffffffffffffffffffffffffffff021916908373ffffffffffffffffffffffffffffffffffffffff16021790555060608201518160020160146101000a81548160ff02191690831515021790555060808201518160030155905050505050565b60008054905090565b60016020528060005260406000206000915090508060000160009054906101000a900473ffffffffffffffffffffffffffffffffffffffff16908060010154908060020160009054906101000a900473ffffffffffffffffffffffffffffffffffffffff16908060020160149054906101000a900460ff16908060030154905085565b60005481565b6040518060a00160405280600073ffffffffffffffffffffffffffffffffffffffff16815260200160008152602001600073ffffffffffffffffffffffffffffffffffffffff168152602001600015158152602001600081525090565b60008135905061077081610ca6565b92915050565b60008135905061078581610cbd565b92915050565b6000806000606084860312156107a057600080fd5b60006107ae86828701610761565b93505060206107bf86828701610776565b92505060406107d086828701610776565b9150509250925092565b6000602082840312156107ec57600080fd5b60006107fa84828501610776565b91505092915050565b61080c81610ac0565b82525050565b61081b81610ac0565b82525050565b61082a81610ad2565b82525050565b61083981610ad2565b82525050565b61084881610b1a565b82525050565b61085781610b1a565b82525050565b600061086a602783610aaf565b915061087582610bb6565b604082019050919050565b600061088d602283610aaf565b915061089882610c05565b604082019050919050565b60006108b0601483610aaf565b91506108bb82610c54565b602082019050919050565b60006108d3601a83610aaf565b91506108de82610c7d565b602082019050919050565b60a0820160008201516108ff600085018261083f565b5060208201516109126020850182610951565b5060408201516109256040850182610803565b5060608201516109386060850182610821565b50608082015161094b6080850182610951565b50505050565b61095a81610b10565b82525050565b61096981610b10565b82525050565b60006060820190506109846000830186610812565b6109916020830185610812565b61099e6040830184610960565b949350505050565b600060a0820190506109bb600083018861084e565b6109c86020830187610960565b6109d56040830186610812565b6109e26060830185610830565b6109ef6080830184610960565b9695505050505050565b60006020820190508181036000830152610a128161085d565b9050919050565b60006020820190508181036000830152610a3281610880565b9050919050565b60006020820190508181036000830152610a52816108a3565b9050919050565b60006020820190508181036000830152610a72816108c6565b9050919050565b600060a082019050610a8e60008301846108e9565b92915050565b6000602082019050610aa96000830184610960565b92915050565b600082825260208201905092915050565b6000610acb82610af0565b9050919050565b60008115159050919050565b6000610ae982610ac0565b9050919050565b600073ffffffffffffffffffffffffffffffffffffffff82169050919050565b6000819050919050565b6000610b2582610b2c565b9050919050565b6000610b3782610af0565b9050919050565b6000610b4982610b10565b91507fffffffffffffffffffffffffffffffffffffffffffffffffffffffffffffffff821415610b7c57610b7b610b87565b5b600182019050919050565b7f4e487b7100000000000000000000000000000000000000000000000000000000600052601160045260246000fd5b7f4e46544d61726b65743a207072696365206d757374206265206772656174657260008201527f207468616e203000000000000000000000000000000000000000000000000000602082015250565b7f4e46544d61726b65743a206e6674206e6f74206c697374656420666f7220736160008201527f6c65000000000000000000000000000000000000000000000000000000000000602082015250565b7f6974656d20697320616c726561647920736f6c64000000000000000000000000600082015250565b7f4e46544d61726b65743a20696e636f7272656374207072696365000000000000600082015250565b610caf81610ade565b8114610cba57600080fd5b50565b610cc681610b10565b8114610cd157600080fd5b5056fea2646970667358221220d317ce81af3b4ae766491f4829f103ab2c05013ba19844de81f82301e462ed3164736f6c63430008040033",
  "linkReferences": {},
  "deployedLinkReferences": {}
}