{
  "_format": "hh-sol-artifact-1",
  "contractName": "NFTMarketplace",
  "sourceName": "contracts/NFTMarketplace.sol",
  "abi": [
    {
      "anonymous": false,
      "inputs": [
        {
          "indexed": true,
          "internalType": "address",
          "name": "previousOwner",
          "type": "address"
        },
        {
          "indexed": true,
          "internalType": "address",
          "name": "newOwner",
          "type": "address"
        }
      ],
      "name": "OwnershipTransferred",
      "type": "event"
    },
    {
      "inputs": [
        {
          "internalType": "uint256",
          "name": "tokenID",
          "type": "uint256"
        }
      ],
      "name": "buyNFT",
      "outputs": [],
      "stateMutability": "payable",
      "type": "function"
    },
    {
      "inputs": [],
      "name": "getListinglength",
      "outputs": [
        {
          "internalType": "uint256",
          "name": "",
          "type": "uint256"
        }
      ],
      "stateMutability": "view",
      "type": "function"
    },
    {
      "inputs": [
        {
          "internalType": "uint256",
          "name": "_tokenID",
          "type": "uint256"
        }
      ],
      "name": "getNFTListing",
      "outputs": [
        {
          "components": [
            {
              "internalType": "contract IERC721",
              "name": "nft",
              "type": "address"
            },
            {
              "internalType": "uint256",
              "name": "price",
              "type": "uint256"
            },
            {
              "internalType": "address",
              "name": "seller",
              "type": "address"
            },
            {
              "internalType": "bool",
              "name": "sold",
              "type": "bool"
            }
          ],
          "internalType": "struct NFTMarketplace.NFTListing",
          "name": "",
          "type": "tuple"
        }
      ],
      "stateMutability": "view",
      "type": "function"
    },
    {
      "inputs": [
        {
          "internalType": "contract IERC721",
          "name": "_nft",
          "type": "address"
        },
        {
          "internalType": "uint256",
          "name": "tokenID",
          "type": "uint256"
        },
        {
          "internalType": "uint256",
          "name": "price",
          "type": "uint256"
        }
      ],
      "name": "listNFT",
      "outputs": [],
      "stateMutability": "nonpayable",
      "type": "function"
    },
    {
      "inputs": [],
      "name": "listingLength",
      "outputs": [
        {
          "internalType": "uint256",
          "name": "",
          "type": "uint256"
        }
      ],
      "stateMutability": "view",
      "type": "function"
    },
    {
      "inputs": [],
      "name": "owner",
      "outputs": [
        {
          "internalType": "address",
          "name": "",
          "type": "address"
        }
      ],
      "stateMutability": "view",
      "type": "function"
    },
    {
      "inputs": [],
      "name": "renounceOwnership",
      "outputs": [],
      "stateMutability": "nonpayable",
      "type": "function"
    },
    {
      "inputs": [
        {
          "internalType": "address",
          "name": "newOwner",
          "type": "address"
        }
      ],
      "name": "transferOwnership",
      "outputs": [],
      "stateMutability": "nonpayable",
      "type": "function"
    }
  ],
  "bytecode": "0x6080604052600060015534801561001557600080fd5b5061003261002761003760201b60201c565b61003f60201b60201c565b610103565b600033905090565b60008060009054906101000a900473ffffffffffffffffffffffffffffffffffffffff169050816000806101000a81548173ffffffffffffffffffffffffffffffffffffffff021916908373ffffffffffffffffffffffffffffffffffffffff1602179055508173ffffffffffffffffffffffffffffffffffffffff168173ffffffffffffffffffffffffffffffffffffffff167f8be0079c531659141344cd1fd0a4f28419497f9722a3daafe3b4186f6b6457e060405160405180910390a35050565b6111c0806101126000396000f3fe60806040526004361061007b5760003560e01c8063ad05f1b41161004e578063ad05f1b41461011b578063c85d526214610144578063ee52a6251461016f578063f2fde38b1461019a5761007b565b80630ea59c4b1461008057806351ed8288146100bd578063715018a6146100d95780638da5cb5b146100f0575b600080fd5b34801561008c57600080fd5b506100a760048036038101906100a29190610b2a565b6101c3565b6040516100b49190610de6565b60405180910390f35b6100d760048036038101906100d29190610b2a565b6102c1565b005b3480156100e557600080fd5b506100ee61057f565b005b3480156100fc57600080fd5b50610105610607565b6040516101129190610cd4565b60405180910390f35b34801561012757600080fd5b50610142600480360381019061013d9190610adb565b610630565b005b34801561015057600080fd5b5061015961081d565b6040516101669190610e01565b60405180910390f35b34801561017b57600080fd5b50610184610827565b6040516101919190610e01565b60405180910390f35b3480156101a657600080fd5b506101c160048036038101906101bc9190610ab2565b61082d565b005b6101cb610a1d565b600260008381526020019081526020016000206040518060800160405290816000820160009054906101000a900473ffffffffffffffffffffffffffffffffffffffff1673ffffffffffffffffffffffffffffffffffffffff1673ffffffffffffffffffffffffffffffffffffffff168152602001600182015481526020016002820160009054906101000a900473ffffffffffffffffffffffffffffffffffffffff1673ffffffffffffffffffffffffffffffffffffffff1673ffffffffffffffffffffffffffffffffffffffff1681526020016002820160149054906101000a900460ff1615151515815250509050919050565b6000600260008381526020019081526020016000206040518060800160405290816000820160009054906101000a900473ffffffffffffffffffffffffffffffffffffffff1673ffffffffffffffffffffffffffffffffffffffff1673ffffffffffffffffffffffffffffffffffffffff168152602001600182015481526020016002820160009054906101000a900473ffffffffffffffffffffffffffffffffffffffff1673ffffffffffffffffffffffffffffffffffffffff1673ffffffffffffffffffffffffffffffffffffffff1681526020016002820160149054906101000a900460ff16151515158152505090508060600151156103f9576040517f08c379a00000000000000000000000000000000000000000000000000000000081526004016103f090610d26565b60405180910390fd5b6000816020015111610440576040517f08c379a000000000000000000000000000000000000000000000000000000000815260040161043790610d86565b60405180910390fd5b80602001513414610486576040517f08c379a000000000000000000000000000000000000000000000000000000000815260040161047d90610dc6565b60405180910390fd5b3073ffffffffffffffffffffffffffffffffffffffff166323b872dd3033856040518463ffffffff1660e01b81526004016104c393929190610cef565b600060405180830381600087803b1580156104dd57600080fd5b505af11580156104f1573d6000803e3d6000fd5b50505050806040015173ffffffffffffffffffffffffffffffffffffffff166108fc61053e6064610530605f866020015161092590919063ffffffff16565b61093b90919063ffffffff16565b9081150290604051600060405180830381858888f19350505050158015610569573d6000803e3d6000fd5b5060018160600190151590811515815250505050565b610587610951565b73ffffffffffffffffffffffffffffffffffffffff166105a5610607565b73ffffffffffffffffffffffffffffffffffffffff16146105fb576040517f08c379a00000000000000000000000000000000000000000000000000000000081526004016105f290610da6565b60405180910390fd5b6106056000610959565b565b60008060009054906101000a900473ffffffffffffffffffffffffffffffffffffffff16905090565b60008111610673576040517f08c379a000000000000000000000000000000000000000000000000000000000815260040161066a90610d46565b60405180910390fd5b6001600081548092919061068690610f36565b91905055508273ffffffffffffffffffffffffffffffffffffffff166323b872dd3330856040518463ffffffff1660e01b81526004016106c893929190610cef565b600060405180830381600087803b1580156106e257600080fd5b505af11580156106f6573d6000803e3d6000fd5b5050505060405180608001604052808473ffffffffffffffffffffffffffffffffffffffff1681526020018281526020013373ffffffffffffffffffffffffffffffffffffffff168152602001600015158152506002600084815260200190815260200160002060008201518160000160006101000a81548173ffffffffffffffffffffffffffffffffffffffff021916908373ffffffffffffffffffffffffffffffffffffffff1602179055506020820151816001015560408201518160020160006101000a81548173ffffffffffffffffffffffffffffffffffffffff021916908373ffffffffffffffffffffffffffffffffffffffff16021790555060608201518160020160146101000a81548160ff021916908315150217905550905050505050565b6000600154905090565b60015481565b610835610951565b73ffffffffffffffffffffffffffffffffffffffff16610853610607565b73ffffffffffffffffffffffffffffffffffffffff16146108a9576040517f08c379a00000000000000000000000000000000000000000000000000000000081526004016108a090610da6565b60405180910390fd5b600073ffffffffffffffffffffffffffffffffffffffff168173ffffffffffffffffffffffffffffffffffffffff161415610919576040517f08c379a000000000000000000000000000000000000000000000000000000000815260040161091090610d66565b60405180910390fd5b61092281610959565b50565b600081836109339190610e5e565b905092915050565b600081836109499190610e2d565b905092915050565b600033905090565b60008060009054906101000a900473ffffffffffffffffffffffffffffffffffffffff169050816000806101000a81548173ffffffffffffffffffffffffffffffffffffffff021916908373ffffffffffffffffffffffffffffffffffffffff1602179055508173ffffffffffffffffffffffffffffffffffffffff168173ffffffffffffffffffffffffffffffffffffffff167f8be0079c531659141344cd1fd0a4f28419497f9722a3daafe3b4186f6b6457e060405160405180910390a35050565b6040518060800160405280600073ffffffffffffffffffffffffffffffffffffffff16815260200160008152602001600073ffffffffffffffffffffffffffffffffffffffff1681526020016000151581525090565b600081359050610a8281611145565b92915050565b600081359050610a978161115c565b92915050565b600081359050610aac81611173565b92915050565b600060208284031215610ac457600080fd5b6000610ad284828501610a73565b91505092915050565b600080600060608486031215610af057600080fd5b6000610afe86828701610a88565b9350506020610b0f86828701610a9d565b9250506040610b2086828701610a9d565b9150509250925092565b600060208284031215610b3c57600080fd5b6000610b4a84828501610a9d565b91505092915050565b610b5c81610eb8565b82525050565b610b6b81610eb8565b82525050565b610b7a81610eca565b82525050565b610b8981610f12565b82525050565b6000610b9c601183610e1c565b9150610ba782610fdd565b602082019050919050565b6000610bbf602783610e1c565b9150610bca82611006565b604082019050919050565b6000610be2602683610e1c565b9150610bed82611055565b604082019050919050565b6000610c05602283610e1c565b9150610c10826110a4565b604082019050919050565b6000610c28602083610e1c565b9150610c33826110f3565b602082019050919050565b6000610c4b601a83610e1c565b9150610c568261111c565b602082019050919050565b608082016000820151610c776000850182610b80565b506020820151610c8a6020850182610cb6565b506040820151610c9d6040850182610b53565b506060820151610cb06060850182610b71565b50505050565b610cbf81610f08565b82525050565b610cce81610f08565b82525050565b6000602082019050610ce96000830184610b62565b92915050565b6000606082019050610d046000830186610b62565b610d116020830185610b62565b610d1e6040830184610cc5565b949350505050565b60006020820190508181036000830152610d3f81610b8f565b9050919050565b60006020820190508181036000830152610d5f81610bb2565b9050919050565b60006020820190508181036000830152610d7f81610bd5565b9050919050565b60006020820190508181036000830152610d9f81610bf8565b9050919050565b60006020820190508181036000830152610dbf81610c1b565b9050919050565b60006020820190508181036000830152610ddf81610c3e565b9050919050565b6000608082019050610dfb6000830184610c61565b92915050565b6000602082019050610e166000830184610cc5565b92915050565b600082825260208201905092915050565b6000610e3882610f08565b9150610e4383610f08565b925082610e5357610e52610fae565b5b828204905092915050565b6000610e6982610f08565b9150610e7483610f08565b9250817fffffffffffffffffffffffffffffffffffffffffffffffffffffffffffffffff0483118215151615610ead57610eac610f7f565b5b828202905092915050565b6000610ec382610ee8565b9050919050565b60008115159050919050565b6000610ee182610eb8565b9050919050565b600073ffffffffffffffffffffffffffffffffffffffff82169050919050565b6000819050919050565b6000610f1d82610f24565b9050919050565b6000610f2f82610ee8565b9050919050565b6000610f4182610f08565b91507fffffffffffffffffffffffffffffffffffffffffffffffffffffffffffffffff821415610f7457610f73610f7f565b5b600182019050919050565b7f4e487b7100000000000000000000000000000000000000000000000000000000600052601160045260246000fd5b7f4e487b7100000000000000000000000000000000000000000000000000000000600052601260045260246000fd5b7f6974656d20616c726561647920736f6c64000000000000000000000000000000600082015250565b7f4e46544d61726b65743a207072696365206d757374206265206772656174657260008201527f207468616e203000000000000000000000000000000000000000000000000000602082015250565b7f4f776e61626c653a206e6577206f776e657220697320746865207a65726f206160008201527f6464726573730000000000000000000000000000000000000000000000000000602082015250565b7f4e46544d61726b65743a206e6674206e6f74206c697374656420666f7220736160008201527f6c65000000000000000000000000000000000000000000000000000000000000602082015250565b7f4f776e61626c653a2063616c6c6572206973206e6f7420746865206f776e6572600082015250565b7f4e46544d61726b65743a20696e636f7272656374207072696365000000000000600082015250565b61114e81610eb8565b811461115957600080fd5b50565b61116581610ed6565b811461117057600080fd5b50565b61117c81610f08565b811461118757600080fd5b5056fea2646970667358221220e88dbec2da7defb997a8af31ba6fce40eb256779d91ba487ab9f2473cabb8cc964736f6c63430008040033",
  "linkReferences": {},
  "deployedLinkReferences": {}
}