{
  "_format": "hh-sol-artifact-1",
  "contractName": "NFTMarketplace",
  "sourceName": "contracts/NFTMarketplace.sol",
  "abi": [
    {
      "inputs": [
        {
          "internalType": "uint256",
          "name": "",
          "type": "uint256"
        }
      ],
      "name": "_listings",
      "outputs": [
        {
          "internalType": "contract IERC721",
          "name": "nft",
          "type": "address"
        },
        {
          "internalType": "uint256",
          "name": "price",
          "type": "uint256"
        },
        {
          "internalType": "address",
          "name": "seller",
          "type": "address"
        },
        {
          "internalType": "bool",
          "name": "sold",
          "type": "bool"
        },
        {
          "internalType": "uint256",
          "name": "tokenId",
          "type": "uint256"
        },
        {
          "internalType": "bool",
          "name": "canceled",
          "type": "bool"
        }
      ],
      "stateMutability": "view",
      "type": "function"
    },
    {
      "inputs": [
        {
          "internalType": "uint256",
          "name": "_tokenId",
          "type": "uint256"
        }
      ],
      "name": "buyNFT",
      "outputs": [],
      "stateMutability": "payable",
      "type": "function"
    },
    {
      "inputs": [
        {
          "internalType": "uint256",
          "name": "tokenId",
          "type": "uint256"
        }
      ],
      "name": "cancelListing",
      "outputs": [],
      "stateMutability": "nonpayable",
      "type": "function"
    },
    {
      "inputs": [],
      "name": "getListinglength",
      "outputs": [
        {
          "internalType": "uint256",
          "name": "",
          "type": "uint256"
        }
      ],
      "stateMutability": "view",
      "type": "function"
    },
    {
      "inputs": [
        {
          "internalType": "uint256",
          "name": "_tokenId",
          "type": "uint256"
        }
      ],
      "name": "getNFTListing",
      "outputs": [
        {
          "components": [
            {
              "internalType": "contract IERC721",
              "name": "nft",
              "type": "address"
            },
            {
              "internalType": "uint256",
              "name": "price",
              "type": "uint256"
            },
            {
              "internalType": "address",
              "name": "seller",
              "type": "address"
            },
            {
              "internalType": "bool",
              "name": "sold",
              "type": "bool"
            },
            {
              "internalType": "uint256",
              "name": "tokenId",
              "type": "uint256"
            },
            {
              "internalType": "bool",
              "name": "canceled",
              "type": "bool"
            }
          ],
          "internalType": "struct NFTMarketplace.NFTListing",
          "name": "",
          "type": "tuple"
        }
      ],
      "stateMutability": "view",
      "type": "function"
    },
    {
      "inputs": [
        {
          "internalType": "contract IERC721",
          "name": "_nft",
          "type": "address"
        },
        {
          "internalType": "uint256",
          "name": "_price",
          "type": "uint256"
        },
        {
          "internalType": "uint256",
          "name": "_tokenId",
          "type": "uint256"
        }
      ],
      "name": "listNFT",
      "outputs": [],
      "stateMutability": "nonpayable",
      "type": "function"
    },
    {
      "inputs": [],
      "name": "listingLength",
      "outputs": [
        {
          "internalType": "uint256",
          "name": "",
          "type": "uint256"
        }
      ],
      "stateMutability": "view",
      "type": "function"
    }
  ],
  "bytecode": "0x60806040526000805534801561001457600080fd5b506112d1806100246000396000f3fe6080604052600436106100705760003560e01c8063ad05f1b41161004e578063ad05f1b4146100f7578063c85d526214610120578063df76dbc91461014b578063ee52a6251461018d57610070565b80630ea59c4b14610075578063305a67a8146100b257806351ed8288146100db575b600080fd5b34801561008157600080fd5b5061009c60048036038101906100979190610b84565b6101b8565b6040516100a99190610f50565b60405180910390f35b3480156100be57600080fd5b506100d960048036038101906100d49190610b84565b6102db565b005b6100f560048036038101906100f09190610b84565b610483565b005b34801561010357600080fd5b5061011e60048036038101906101199190610b35565b6107da565b005b34801561012c57600080fd5b50610135610a00565b6040516101429190610f6b565b60405180910390f35b34801561015757600080fd5b50610172600480360381019061016d9190610b84565b610a09565b60405161018496959493929190610def565b60405180910390f35b34801561019957600080fd5b506101a2610a9f565b6040516101af9190610f6b565b60405180910390f35b6101c0610aa5565b600160008381526020019081526020016000206040518060c00160405290816000820160009054906101000a900473ffffffffffffffffffffffffffffffffffffffff1673ffffffffffffffffffffffffffffffffffffffff1673ffffffffffffffffffffffffffffffffffffffff168152602001600182015481526020016002820160009054906101000a900473ffffffffffffffffffffffffffffffffffffffff1673ffffffffffffffffffffffffffffffffffffffff1673ffffffffffffffffffffffffffffffffffffffff1681526020016002820160149054906101000a900460ff16151515158152602001600382015481526020016004820160009054906101000a900460ff1615151515815250509050919050565b60006001600083815260200190815260200160002090506000816001015411610339576040517f08c379a000000000000000000000000000000000000000000000000000000000815260040161033090610e90565b60405180910390fd5b3373ffffffffffffffffffffffffffffffffffffffff168160020160009054906101000a900473ffffffffffffffffffffffffffffffffffffffff1673ffffffffffffffffffffffffffffffffffffffff16146103cb576040517f08c379a00000000000000000000000000000000000000000000000000000000081526004016103c290610e70565b60405180910390fd5b8060000160009054906101000a900473ffffffffffffffffffffffffffffffffffffffff1673ffffffffffffffffffffffffffffffffffffffff166323b872dd303384600301546040518463ffffffff1660e01b815260040161043093929190610db8565b600060405180830381600087803b15801561044a57600080fd5b505af115801561045e573d6000803e3d6000fd5b5050505060018160040160006101000a81548160ff0219169083151502179055505050565b60006001600083815260200190815260200160002090506000821180156104ac57506000548211155b6104eb576040517f08c379a00000000000000000000000000000000000000000000000000000000081526004016104e290610ed0565b60405180910390fd5b8060010154341015610532576040517f08c379a000000000000000000000000000000000000000000000000000000000815260040161052990610eb0565b60405180910390fd5b8060020160149054906101000a900460ff1615610584576040517f08c379a000000000000000000000000000000000000000000000000000000000815260040161057b90610f10565b60405180910390fd5b600015158160040160009054906101000a900460ff16151515146105dd576040517f08c379a00000000000000000000000000000000000000000000000000000000081526004016105d490610ef0565b60405180910390fd5b3373ffffffffffffffffffffffffffffffffffffffff168160020160009054906101000a900473ffffffffffffffffffffffffffffffffffffffff1673ffffffffffffffffffffffffffffffffffffffff161415610670576040517f08c379a000000000000000000000000000000000000000000000000000000000815260040161066790610f30565b60405180910390fd5b8060020160009054906101000a900473ffffffffffffffffffffffffffffffffffffffff1673ffffffffffffffffffffffffffffffffffffffff166108fc82600101549081150290604051600060405180830381858888f193505050501580156106de573d6000803e3d6000fd5b5060018160020160146101000a81548160ff0219169083151502179055508060000160009054906101000a900473ffffffffffffffffffffffffffffffffffffffff1673ffffffffffffffffffffffffffffffffffffffff166323b872dd303384600301546040518463ffffffff1660e01b815260040161076193929190610db8565b600060405180830381600087803b15801561077b57600080fd5b505af115801561078f573d6000803e3d6000fd5b50505050338160020160006101000a81548173ffffffffffffffffffffffffffffffffffffffff021916908373ffffffffffffffffffffffffffffffffffffffff1602179055505050565b6000821161081d576040517f08c379a000000000000000000000000000000000000000000000000000000000815260040161081490610e50565b60405180910390fd5b60008081548092919061082f90611015565b91905055508273ffffffffffffffffffffffffffffffffffffffff166323b872dd3330846040518463ffffffff1660e01b815260040161087193929190610db8565b600060405180830381600087803b15801561088b57600080fd5b505af115801561089f573d6000803e3d6000fd5b505050506040518060c001604052808473ffffffffffffffffffffffffffffffffffffffff1681526020018381526020013373ffffffffffffffffffffffffffffffffffffffff16815260200160001515815260200182815260200160001515815250600160008054815260200190815260200160002060008201518160000160006101000a81548173ffffffffffffffffffffffffffffffffffffffff021916908373ffffffffffffffffffffffffffffffffffffffff1602179055506020820151816001015560408201518160020160006101000a81548173ffffffffffffffffffffffffffffffffffffffff021916908373ffffffffffffffffffffffffffffffffffffffff16021790555060608201518160020160146101000a81548160ff0219169083151502179055506080820151816003015560a08201518160040160006101000a81548160ff021916908315150217905550905050505050565b60008054905090565b60016020528060005260406000206000915090508060000160009054906101000a900473ffffffffffffffffffffffffffffffffffffffff16908060010154908060020160009054906101000a900473ffffffffffffffffffffffffffffffffffffffff16908060020160149054906101000a900460ff16908060030154908060040160009054906101000a900460ff16905086565b60005481565b6040518060c00160405280600073ffffffffffffffffffffffffffffffffffffffff16815260200160008152602001600073ffffffffffffffffffffffffffffffffffffffff168152602001600015158152602001600081526020016000151581525090565b600081359050610b1a8161126d565b92915050565b600081359050610b2f81611284565b92915050565b600080600060608486031215610b4a57600080fd5b6000610b5886828701610b0b565b9350506020610b6986828701610b20565b9250506040610b7a86828701610b20565b9150509250925092565b600060208284031215610b9657600080fd5b6000610ba484828501610b20565b91505092915050565b610bb681610f97565b82525050565b610bc581610f97565b82525050565b610bd481610fa9565b82525050565b610be381610fa9565b82525050565b610bf281610ff1565b82525050565b610c0181610ff1565b82525050565b6000610c14602783610f86565b9150610c1f8261108d565b604082019050919050565b6000610c37603783610f86565b9150610c42826110dc565b604082019050919050565b6000610c5a602283610f86565b9150610c658261112b565b604082019050919050565b6000610c7d602783610f86565b9150610c888261117a565b604082019050919050565b6000610ca0601283610f86565b9150610cab826111c9565b602082019050919050565b6000610cc3601883610f86565b9150610cce826111f2565b602082019050919050565b6000610ce6601483610f86565b9150610cf18261121b565b602082019050919050565b6000610d09601b83610f86565b9150610d1482611244565b602082019050919050565b60c082016000820151610d356000850182610be9565b506020820151610d486020850182610d9a565b506040820151610d5b6040850182610bad565b506060820151610d6e6060850182610bcb565b506080820151610d816080850182610d9a565b5060a0820151610d9460a0850182610bcb565b50505050565b610da381610fe7565b82525050565b610db281610fe7565b82525050565b6000606082019050610dcd6000830186610bbc565b610dda6020830185610bbc565b610de76040830184610da9565b949350505050565b600060c082019050610e046000830189610bf8565b610e116020830188610da9565b610e1e6040830187610bbc565b610e2b6060830186610bda565b610e386080830185610da9565b610e4560a0830184610bda565b979650505050505050565b60006020820190508181036000830152610e6981610c07565b9050919050565b60006020820190508181036000830152610e8981610c2a565b9050919050565b60006020820190508181036000830152610ea981610c4d565b9050919050565b60006020820190508181036000830152610ec981610c70565b9050919050565b60006020820190508181036000830152610ee981610c93565b9050919050565b60006020820190508181036000830152610f0981610cb6565b9050919050565b60006020820190508181036000830152610f2981610cd9565b9050919050565b60006020820190508181036000830152610f4981610cfc565b9050919050565b600060c082019050610f656000830184610d1f565b92915050565b6000602082019050610f806000830184610da9565b92915050565b600082825260208201905092915050565b6000610fa282610fc7565b9050919050565b60008115159050919050565b6000610fc082610f97565b9050919050565b600073ffffffffffffffffffffffffffffffffffffffff82169050919050565b6000819050919050565b6000610ffc82611003565b9050919050565b600061100e82610fc7565b9050919050565b600061102082610fe7565b91507fffffffffffffffffffffffffffffffffffffffffffffffffffffffffffffffff8214156110535761105261105e565b5b600182019050919050565b7f4e487b7100000000000000000000000000000000000000000000000000000000600052601160045260246000fd5b7f4e46544d61726b65743a207072696365206d757374206265206772656174657260008201527f207468616e203000000000000000000000000000000000000000000000000000602082015250565b7f4e46544d61726b65743a2063616e6e6f742063616e63656c206c697374696e6760008201527f2c20796f75277265206e6f74207468652073656c6c6572000000000000000000602082015250565b7f4e46544d61726b65743a206e6674206e6f74206c697374656420666f7220736160008201527f6c65000000000000000000000000000000000000000000000000000000000000602082015250565b7f6e6f7420656e6f7567682062616c616e636520666f722074686973207472616e60008201527f73616374696f6e00000000000000000000000000000000000000000000000000602082015250565b7f6974656d20646f65736e27742065786973740000000000000000000000000000600082015250565b7f6974656d2069732063616e63656c656420616c72656164790000000000000000600082015250565b7f6974656d20697320736f6c6420616c7265616479000000000000000000000000600082015250565b7f596f752063616e6e6f742062757920796f7572206f776e206e66740000000000600082015250565b61127681610fb5565b811461128157600080fd5b50565b61128d81610fe7565b811461129857600080fd5b5056fea2646970667358221220e869279ce26bf23c313b6ece316b0feea9d48de5369c19d8bfc967338c7c78ae64736f6c63430008040033",
  "linkReferences": {},
  "deployedLinkReferences": {}
}