{
  "_format": "hh-sol-artifact-1",
  "contractName": "NFTMarketplace",
  "sourceName": "contracts/NFTMarketplace.sol",
  "abi": [
    {
      "inputs": [
        {
          "internalType": "uint256",
          "name": "",
          "type": "uint256"
        }
      ],
      "name": "_listings",
      "outputs": [
        {
          "internalType": "contract IERC721",
          "name": "nft",
          "type": "address"
        },
        {
          "internalType": "uint256",
          "name": "price",
          "type": "uint256"
        },
        {
          "internalType": "address",
          "name": "seller",
          "type": "address"
        },
        {
          "internalType": "bool",
          "name": "sold",
          "type": "bool"
        },
        {
          "internalType": "uint256",
          "name": "tokenId",
          "type": "uint256"
        }
      ],
      "stateMutability": "view",
      "type": "function"
    },
    {
      "inputs": [
        {
          "internalType": "uint256",
          "name": "_tokenId",
          "type": "uint256"
        }
      ],
      "name": "buyNFT",
      "outputs": [],
      "stateMutability": "payable",
      "type": "function"
    },
    {
      "inputs": [
        {
          "internalType": "uint256",
          "name": "tokenId",
          "type": "uint256"
        }
      ],
      "name": "cancelListing",
      "outputs": [],
      "stateMutability": "nonpayable",
      "type": "function"
    },
    {
      "inputs": [],
      "name": "getListinglength",
      "outputs": [
        {
          "internalType": "uint256",
          "name": "",
          "type": "uint256"
        }
      ],
      "stateMutability": "view",
      "type": "function"
    },
    {
      "inputs": [
        {
          "internalType": "uint256",
          "name": "_tokenId",
          "type": "uint256"
        }
      ],
      "name": "getNFTListing",
      "outputs": [
        {
          "components": [
            {
              "internalType": "contract IERC721",
              "name": "nft",
              "type": "address"
            },
            {
              "internalType": "uint256",
              "name": "price",
              "type": "uint256"
            },
            {
              "internalType": "address",
              "name": "seller",
              "type": "address"
            },
            {
              "internalType": "bool",
              "name": "sold",
              "type": "bool"
            },
            {
              "internalType": "uint256",
              "name": "tokenId",
              "type": "uint256"
            }
          ],
          "internalType": "struct NFTMarketplace.NFTListing",
          "name": "",
          "type": "tuple"
        }
      ],
      "stateMutability": "view",
      "type": "function"
    },
    {
      "inputs": [
        {
          "internalType": "contract IERC721",
          "name": "_nft",
          "type": "address"
        },
        {
          "internalType": "uint256",
          "name": "_price",
          "type": "uint256"
        },
        {
          "internalType": "uint256",
          "name": "_tokenId",
          "type": "uint256"
        }
      ],
      "name": "listNFT",
      "outputs": [],
      "stateMutability": "nonpayable",
      "type": "function"
    },
    {
      "inputs": [],
      "name": "listingLength",
      "outputs": [
        {
          "internalType": "uint256",
          "name": "",
          "type": "uint256"
        }
      ],
      "stateMutability": "view",
      "type": "function"
    }
  ],
  "bytecode": "0x60806040526000805534801561001457600080fd5b50611121806100246000396000f3fe6080604052600436106100705760003560e01c8063ad05f1b41161004e578063ad05f1b4146100f7578063c85d526214610120578063df76dbc91461014b578063ee52a6251461018c57610070565b80630ea59c4b14610075578063305a67a8146100b257806351ed8288146100db575b600080fd5b34801561008157600080fd5b5061009c60048036038101906100979190610af3565b6101b7565b6040516100a99190610e18565b60405180910390f35b3480156100be57600080fd5b506100d960048036038101906100d49190610af3565b6102bf565b005b6100f560048036038101906100f09190610af3565b6104f1565b005b34801561010357600080fd5b5061011e60048036038101906101199190610aa4565b610719565b005b34801561012c57600080fd5b50610135610916565b6040516101429190610e33565b60405180910390f35b34801561015757600080fd5b50610172600480360381019061016d9190610af3565b61091f565b604051610183959493929190610d05565b60405180910390f35b34801561019857600080fd5b506101a16109a2565b6040516101ae9190610e33565b60405180910390f35b6101bf610a1d565b600160008381526020019081526020016000206040518060a00160405290816000820160009054906101000a900473ffffffffffffffffffffffffffffffffffffffff1673ffffffffffffffffffffffffffffffffffffffff1673ffffffffffffffffffffffffffffffffffffffff168152602001600182015481526020016002820160009054906101000a900473ffffffffffffffffffffffffffffffffffffffff1673ffffffffffffffffffffffffffffffffffffffff1673ffffffffffffffffffffffffffffffffffffffff1681526020016002820160149054906101000a900460ff161515151581526020016003820154815250509050919050565b6000600160008381526020019081526020016000206040518060a00160405290816000820160009054906101000a900473ffffffffffffffffffffffffffffffffffffffff1673ffffffffffffffffffffffffffffffffffffffff1673ffffffffffffffffffffffffffffffffffffffff168152602001600182015481526020016002820160009054906101000a900473ffffffffffffffffffffffffffffffffffffffff1673ffffffffffffffffffffffffffffffffffffffff1673ffffffffffffffffffffffffffffffffffffffff1681526020016002820160149054906101000a900460ff1615151515815260200160038201548152505090506000816020015111610403576040517f08c379a00000000000000000000000000000000000000000000000000000000081526004016103fa90610d78565b60405180910390fd5b3373ffffffffffffffffffffffffffffffffffffffff16816040015173ffffffffffffffffffffffffffffffffffffffff1614610475576040517f08c379a000000000000000000000000000000000000000000000000000000000815260040161046c90610df8565b60405180910390fd5b3073ffffffffffffffffffffffffffffffffffffffff166323b872dd3033856040518463ffffffff1660e01b81526004016104b293929190610cce565b600060405180830381600087803b1580156104cc57600080fd5b505af11580156104e0573d6000803e3d6000fd5b505050506104ed826109a8565b5050565b600060016000838152602001908152602001600020905060008211801561051a57506000548211155b610559576040517f08c379a000000000000000000000000000000000000000000000000000000000815260040161055090610db8565b60405180910390fd5b80600101543410156105a0576040517f08c379a000000000000000000000000000000000000000000000000000000000815260040161059790610d98565b60405180910390fd5b8060020160149054906101000a900460ff16156105f2576040517f08c379a00000000000000000000000000000000000000000000000000000000081526004016105e990610dd8565b60405180910390fd5b8060020160009054906101000a900473ffffffffffffffffffffffffffffffffffffffff1673ffffffffffffffffffffffffffffffffffffffff166108fc82600101549081150290604051600060405180830381858888f19350505050158015610660573d6000803e3d6000fd5b5060018160020160146101000a81548160ff0219169083151502179055508060000160009054906101000a900473ffffffffffffffffffffffffffffffffffffffff1673ffffffffffffffffffffffffffffffffffffffff166323b872dd303384600301546040518463ffffffff1660e01b81526004016106e393929190610cce565b600060405180830381600087803b1580156106fd57600080fd5b505af1158015610711573d6000803e3d6000fd5b505050505050565b6000821161075c576040517f08c379a000000000000000000000000000000000000000000000000000000000815260040161075390610d58565b60405180910390fd5b60008081548092919061076e90610edd565b91905055508273ffffffffffffffffffffffffffffffffffffffff166323b872dd3330846040518463ffffffff1660e01b81526004016107b093929190610cce565b600060405180830381600087803b1580156107ca57600080fd5b505af11580156107de573d6000803e3d6000fd5b505050506040518060a001604052808473ffffffffffffffffffffffffffffffffffffffff1681526020018381526020013373ffffffffffffffffffffffffffffffffffffffff16815260200160001515815260200182815250600160008054815260200190815260200160002060008201518160000160006101000a81548173ffffffffffffffffffffffffffffffffffffffff021916908373ffffffffffffffffffffffffffffffffffffffff1602179055506020820151816001015560408201518160020160006101000a81548173ffffffffffffffffffffffffffffffffffffffff021916908373ffffffffffffffffffffffffffffffffffffffff16021790555060608201518160020160146101000a81548160ff02191690831515021790555060808201518160030155905050505050565b60008054905090565b60016020528060005260406000206000915090508060000160009054906101000a900473ffffffffffffffffffffffffffffffffffffffff16908060010154908060020160009054906101000a900473ffffffffffffffffffffffffffffffffffffffff16908060020160149054906101000a900460ff16908060030154905085565b60005481565b6000600160008381526020019081526020016000206001018190555060006001600083815260200190815260200160002060020160006101000a81548173ffffffffffffffffffffffffffffffffffffffff021916908373ffffffffffffffffffffffffffffffffffffffff16021790555050565b6040518060a00160405280600073ffffffffffffffffffffffffffffffffffffffff16815260200160008152602001600073ffffffffffffffffffffffffffffffffffffffff168152602001600015158152602001600081525090565b600081359050610a89816110bd565b92915050565b600081359050610a9e816110d4565b92915050565b600080600060608486031215610ab957600080fd5b6000610ac786828701610a7a565b9350506020610ad886828701610a8f565b9250506040610ae986828701610a8f565b9150509250925092565b600060208284031215610b0557600080fd5b6000610b1384828501610a8f565b91505092915050565b610b2581610e5f565b82525050565b610b3481610e5f565b82525050565b610b4381610e71565b82525050565b610b5281610e71565b82525050565b610b6181610eb9565b82525050565b610b7081610eb9565b82525050565b6000610b83602783610e4e565b9150610b8e82610f55565b604082019050919050565b6000610ba6602283610e4e565b9150610bb182610fa4565b604082019050919050565b6000610bc9602783610e4e565b9150610bd482610ff3565b604082019050919050565b6000610bec601283610e4e565b9150610bf782611042565b602082019050919050565b6000610c0f601483610e4e565b9150610c1a8261106b565b602082019050919050565b6000610c32602083610e4e565b9150610c3d82611094565b602082019050919050565b60a082016000820151610c5e6000850182610b58565b506020820151610c716020850182610cb0565b506040820151610c846040850182610b1c565b506060820151610c976060850182610b3a565b506080820151610caa6080850182610cb0565b50505050565b610cb981610eaf565b82525050565b610cc881610eaf565b82525050565b6000606082019050610ce36000830186610b2b565b610cf06020830185610b2b565b610cfd6040830184610cbf565b949350505050565b600060a082019050610d1a6000830188610b67565b610d276020830187610cbf565b610d346040830186610b2b565b610d416060830185610b49565b610d4e6080830184610cbf565b9695505050505050565b60006020820190508181036000830152610d7181610b76565b9050919050565b60006020820190508181036000830152610d9181610b99565b9050919050565b60006020820190508181036000830152610db181610bbc565b9050919050565b60006020820190508181036000830152610dd181610bdf565b9050919050565b60006020820190508181036000830152610df181610c02565b9050919050565b60006020820190508181036000830152610e1181610c25565b9050919050565b600060a082019050610e2d6000830184610c48565b92915050565b6000602082019050610e486000830184610cbf565b92915050565b600082825260208201905092915050565b6000610e6a82610e8f565b9050919050565b60008115159050919050565b6000610e8882610e5f565b9050919050565b600073ffffffffffffffffffffffffffffffffffffffff82169050919050565b6000819050919050565b6000610ec482610ecb565b9050919050565b6000610ed682610e8f565b9050919050565b6000610ee882610eaf565b91507fffffffffffffffffffffffffffffffffffffffffffffffffffffffffffffffff821415610f1b57610f1a610f26565b5b600182019050919050565b7f4e487b7100000000000000000000000000000000000000000000000000000000600052601160045260246000fd5b7f4e46544d61726b65743a207072696365206d757374206265206772656174657260008201527f207468616e203000000000000000000000000000000000000000000000000000602082015250565b7f4e46544d61726b65743a206e6674206e6f74206c697374656420666f7220736160008201527f6c65000000000000000000000000000000000000000000000000000000000000602082015250565b7f6e6f7420656e6f7567682062616c616e636520666f722074686973207472616e60008201527f73616374696f6e00000000000000000000000000000000000000000000000000602082015250565b7f6974656d20646f65736e27742065786973740000000000000000000000000000600082015250565b7f6974656d20697320736f6c6420616c7265616479000000000000000000000000600082015250565b7f4e46544d61726b65743a20796f75277265206e6f74207468652073656c6c6572600082015250565b6110c681610e7d565b81146110d157600080fd5b50565b6110dd81610eaf565b81146110e857600080fd5b5056fea2646970667358221220c7248fccd339bda5c866dc2d896ec7bea900f3c0b97be7389aa0f4a8a1c1973d64736f6c63430008040033",
  "linkReferences": {},
  "deployedLinkReferences": {}
}