{
  "_format": "hh-sol-artifact-1",
  "contractName": "NFTMarketplace",
  "sourceName": "contracts/NFTMarketplace.sol",
  "abi": [
    {
      "inputs": [
        {
          "internalType": "uint256",
          "name": "_tokenId",
          "type": "uint256"
        }
      ],
      "name": "buyNFT",
      "outputs": [],
      "stateMutability": "payable",
      "type": "function"
    },
    {
      "inputs": [],
      "name": "getListinglength",
      "outputs": [
        {
          "internalType": "uint256",
          "name": "",
          "type": "uint256"
        }
      ],
      "stateMutability": "view",
      "type": "function"
    },
    {
      "inputs": [
        {
          "internalType": "uint256",
          "name": "_tokenId",
          "type": "uint256"
        }
      ],
      "name": "getNFTListing",
      "outputs": [
        {
          "components": [
            {
              "internalType": "contract IERC721",
              "name": "nft",
              "type": "address"
            },
            {
              "internalType": "uint256",
              "name": "price",
              "type": "uint256"
            },
            {
              "internalType": "address",
              "name": "seller",
              "type": "address"
            },
            {
              "internalType": "bool",
              "name": "sold",
              "type": "bool"
            },
            {
              "internalType": "uint256",
              "name": "tokenId",
              "type": "uint256"
            }
          ],
          "internalType": "struct NFTMarketplace.NFTListing",
          "name": "",
          "type": "tuple"
        }
      ],
      "stateMutability": "view",
      "type": "function"
    },
    {
      "inputs": [
        {
          "internalType": "contract IERC721",
          "name": "_nft",
          "type": "address"
        },
        {
          "internalType": "uint256",
          "name": "_price",
          "type": "uint256"
        },
        {
          "internalType": "uint256",
          "name": "_tokenId",
          "type": "uint256"
        }
      ],
      "name": "listNFT",
      "outputs": [],
      "stateMutability": "nonpayable",
      "type": "function"
    },
    {
      "inputs": [],
      "name": "listingLength",
      "outputs": [
        {
          "internalType": "uint256",
          "name": "",
          "type": "uint256"
        }
      ],
      "stateMutability": "view",
      "type": "function"
    }
  ],
  "bytecode": "0x60806040526000805534801561001457600080fd5b50610bc9806100246000396000f3fe60806040526004361061004a5760003560e01c80630ea59c4b1461004f57806351ed82881461008c578063ad05f1b4146100a8578063c85d5262146100d1578063ee52a625146100fc575b600080fd5b34801561005b57600080fd5b506100766004803603810190610071919061070a565b610127565b6040516100839190610938565b60405180910390f35b6100a660048036038101906100a1919061070a565b61022f565b005b3480156100b457600080fd5b506100cf60048036038101906100ca91906106bb565b610428565b005b3480156100dd57600080fd5b506100e6610625565b6040516100f39190610953565b60405180910390f35b34801561010857600080fd5b5061011161062e565b60405161011e9190610953565b60405180910390f35b61012f610634565b600160008381526020019081526020016000206040518060a00160405290816000820160009054906101000a900473ffffffffffffffffffffffffffffffffffffffff1673ffffffffffffffffffffffffffffffffffffffff1673ffffffffffffffffffffffffffffffffffffffff168152602001600182015481526020016002820160009054906101000a900473ffffffffffffffffffffffffffffffffffffffff1673ffffffffffffffffffffffffffffffffffffffff1673ffffffffffffffffffffffffffffffffffffffff1681526020016002820160149054906101000a900460ff161515151581526020016003820154815250509050919050565b60006001600083815260200190815260200160002090508060020160149054906101000a900460ff1615610298576040517f08c379a000000000000000000000000000000000000000000000000000000000815260040161028f906108f8565b60405180910390fd5b60008160010154116102df576040517f08c379a00000000000000000000000000000000000000000000000000000000081526004016102d6906108d8565b60405180910390fd5b80600101543414610325576040517f08c379a000000000000000000000000000000000000000000000000000000000815260040161031c90610918565b60405180910390fd5b3073ffffffffffffffffffffffffffffffffffffffff166323b872dd303384600301546040518463ffffffff1660e01b815260040161036693929190610881565b600060405180830381600087803b15801561038057600080fd5b505af1158015610394573d6000803e3d6000fd5b505050508060020160009054906101000a900473ffffffffffffffffffffffffffffffffffffffff1673ffffffffffffffffffffffffffffffffffffffff166108fc82600101549081150290604051600060405180830381858888f19350505050158015610406573d6000803e3d6000fd5b5060018160020160146101000a81548160ff0219169083151502179055505050565b6000821161046b576040517f08c379a0000000000000000000000000000000000000000000000000000000008152600401610462906108b8565b60405180910390fd5b60008081548092919061047d906109fd565b91905055508273ffffffffffffffffffffffffffffffffffffffff166323b872dd3330846040518463ffffffff1660e01b81526004016104bf93929190610881565b600060405180830381600087803b1580156104d957600080fd5b505af11580156104ed573d6000803e3d6000fd5b505050506040518060a001604052808473ffffffffffffffffffffffffffffffffffffffff1681526020018381526020013373ffffffffffffffffffffffffffffffffffffffff16815260200160001515815260200182815250600160008054815260200190815260200160002060008201518160000160006101000a81548173ffffffffffffffffffffffffffffffffffffffff021916908373ffffffffffffffffffffffffffffffffffffffff1602179055506020820151816001015560408201518160020160006101000a81548173ffffffffffffffffffffffffffffffffffffffff021916908373ffffffffffffffffffffffffffffffffffffffff16021790555060608201518160020160146101000a81548160ff02191690831515021790555060808201518160030155905050505050565b60008054905090565b60005481565b6040518060a00160405280600073ffffffffffffffffffffffffffffffffffffffff16815260200160008152602001600073ffffffffffffffffffffffffffffffffffffffff168152602001600015158152602001600081525090565b6000813590506106a081610b65565b92915050565b6000813590506106b581610b7c565b92915050565b6000806000606084860312156106d057600080fd5b60006106de86828701610691565b93505060206106ef868287016106a6565b9250506040610700868287016106a6565b9150509250925092565b60006020828403121561071c57600080fd5b600061072a848285016106a6565b91505092915050565b61073c8161097f565b82525050565b61074b8161097f565b82525050565b61075a81610991565b82525050565b610769816109d9565b82525050565b600061077c60278361096e565b915061078782610a75565b604082019050919050565b600061079f60228361096e565b91506107aa82610ac4565b604082019050919050565b60006107c260148361096e565b91506107cd82610b13565b602082019050919050565b60006107e5601a8361096e565b91506107f082610b3c565b602082019050919050565b60a0820160008201516108116000850182610760565b5060208201516108246020850182610863565b5060408201516108376040850182610733565b50606082015161084a6060850182610751565b50608082015161085d6080850182610863565b50505050565b61086c816109cf565b82525050565b61087b816109cf565b82525050565b60006060820190506108966000830186610742565b6108a36020830185610742565b6108b06040830184610872565b949350505050565b600060208201905081810360008301526108d18161076f565b9050919050565b600060208201905081810360008301526108f181610792565b9050919050565b60006020820190508181036000830152610911816107b5565b9050919050565b60006020820190508181036000830152610931816107d8565b9050919050565b600060a08201905061094d60008301846107fb565b92915050565b60006020820190506109686000830184610872565b92915050565b600082825260208201905092915050565b600061098a826109af565b9050919050565b60008115159050919050565b60006109a88261097f565b9050919050565b600073ffffffffffffffffffffffffffffffffffffffff82169050919050565b6000819050919050565b60006109e4826109eb565b9050919050565b60006109f6826109af565b9050919050565b6000610a08826109cf565b91507fffffffffffffffffffffffffffffffffffffffffffffffffffffffffffffffff821415610a3b57610a3a610a46565b5b600182019050919050565b7f4e487b7100000000000000000000000000000000000000000000000000000000600052601160045260246000fd5b7f4e46544d61726b65743a207072696365206d757374206265206772656174657260008201527f207468616e203000000000000000000000000000000000000000000000000000602082015250565b7f4e46544d61726b65743a206e6674206e6f74206c697374656420666f7220736160008201527f6c65000000000000000000000000000000000000000000000000000000000000602082015250565b7f6974656d20697320616c726561647920736f6c64000000000000000000000000600082015250565b7f4e46544d61726b65743a20696e636f7272656374207072696365000000000000600082015250565b610b6e8161099d565b8114610b7957600080fd5b50565b610b85816109cf565b8114610b9057600080fd5b5056fea264697066735822122059c4686cfd55d0b9eeaf953f23e93ba2492e2726d408dc974b5c720c5a0ed80d64736f6c63430008040033",
  "linkReferences": {},
  "deployedLinkReferences": {}
}